{
  "contractName": "Property",
  "abi": [
    {
      "inputs": [
        {
          "internalType": "bytes32",
          "name": "",
          "type": "bytes32"
        }
      ],
      "name": "landExists",
      "outputs": [
        {
          "internalType": "bool",
          "name": "",
          "type": "bool"
        }
      ],
      "stateMutability": "view",
      "type": "function"
    },
    {
      "inputs": [
        {
          "internalType": "uint256",
          "name": "",
          "type": "uint256"
        }
      ],
      "name": "lands",
      "outputs": [
        {
          "internalType": "uint256",
          "name": "propertyId",
          "type": "uint256"
        },
        {
          "internalType": "uint256",
          "name": "locationId",
          "type": "uint256"
        },
        {
          "internalType": "uint256",
          "name": "revenueDepartmentId",
          "type": "uint256"
        },
        {
          "internalType": "uint256",
          "name": "surveyNumber",
          "type": "uint256"
        },
        {
          "internalType": "address",
          "name": "owner",
          "type": "address"
        },
        {
          "internalType": "uint256",
          "name": "area",
          "type": "uint256"
        },
        {
          "internalType": "uint256",
          "name": "price",
          "type": "uint256"
        },
        {
          "internalType": "uint256",
          "name": "registeredTime",
          "type": "uint256"
        },
        {
          "internalType": "address",
          "name": "employeeId",
          "type": "address"
        },
        {
          "internalType": "string",
          "name": "scheduledDate",
          "type": "string"
        },
        {
          "internalType": "string",
          "name": "rejectedReason",
          "type": "string"
        },
        {
          "internalType": "enum Property.StateOfProperty",
          "name": "state",
          "type": "uint8"
        }
      ],
      "stateMutability": "view",
      "type": "function"
    },
    {
      "inputs": [
        {
          "internalType": "uint256",
          "name": "_locationId",
          "type": "uint256"
        },
        {
          "internalType": "uint256",
          "name": "_revenueDepartmentId",
          "type": "uint256"
        },
        {
          "internalType": "uint256",
          "name": "_surveyNumber",
          "type": "uint256"
        }
      ],
      "name": "generateLandHash",
      "outputs": [
        {
          "internalType": "bytes32",
          "name": "",
          "type": "bytes32"
        }
      ],
      "stateMutability": "pure",
      "type": "function"
    },
    {
      "inputs": [
        {
          "internalType": "uint256",
          "name": "_locationId",
          "type": "uint256"
        },
        {
          "internalType": "uint256",
          "name": "_revenueDepartmentId",
          "type": "uint256"
        },
        {
          "internalType": "uint256",
          "name": "_surveyNumber",
          "type": "uint256"
        },
        {
          "internalType": "address",
          "name": "_owner",
          "type": "address"
        },
        {
          "internalType": "uint256",
          "name": "_area",
          "type": "uint256"
        }
      ],
      "name": "addLand",
      "outputs": [
        {
          "internalType": "uint256",
          "name": "",
          "type": "uint256"
        }
      ],
      "stateMutability": "nonpayable",
      "type": "function"
    },
    {
      "inputs": [
        {
          "internalType": "uint256",
          "name": "_propertyId",
          "type": "uint256"
        }
      ],
      "name": "getLandDetailsAsStruct",
      "outputs": [
        {
          "components": [
            {
              "internalType": "uint256",
              "name": "propertyId",
              "type": "uint256"
            },
            {
              "internalType": "uint256",
              "name": "locationId",
              "type": "uint256"
            },
            {
              "internalType": "uint256",
              "name": "revenueDepartmentId",
              "type": "uint256"
            },
            {
              "internalType": "uint256",
              "name": "surveyNumber",
              "type": "uint256"
            },
            {
              "internalType": "address",
              "name": "owner",
              "type": "address"
            },
            {
              "internalType": "uint256",
              "name": "area",
              "type": "uint256"
            },
            {
              "internalType": "uint256",
              "name": "price",
              "type": "uint256"
            },
            {
              "internalType": "uint256",
              "name": "registeredTime",
              "type": "uint256"
            },
            {
              "internalType": "address",
              "name": "employeeId",
              "type": "address"
            },
            {
              "internalType": "string",
              "name": "scheduledDate",
              "type": "string"
            },
            {
              "internalType": "string",
              "name": "rejectedReason",
              "type": "string"
            },
            {
              "internalType": "enum Property.StateOfProperty",
              "name": "state",
              "type": "uint8"
            }
          ],
          "internalType": "struct Property.Land",
          "name": "",
          "type": "tuple"
        }
      ],
      "stateMutability": "view",
      "type": "function"
    },
    {
      "inputs": [
        {
          "internalType": "uint256",
          "name": "_propertyId",
          "type": "uint256"
        }
      ],
      "name": "removeLand",
      "outputs": [],
      "stateMutability": "nonpayable",
      "type": "function"
    },
    {
      "inputs": [
        {
          "internalType": "uint256",
          "name": "_propertyId",
          "type": "uint256"
        },
        {
          "internalType": "uint256",
          "name": "_locationId",
          "type": "uint256"
        },
        {
          "internalType": "uint256",
          "name": "_revenueDepartmentId",
          "type": "uint256"
        },
        {
          "internalType": "uint256",
          "name": "_surveyNumber",
          "type": "uint256"
        },
        {
          "internalType": "address",
          "name": "_owner",
          "type": "address"
        },
        {
          "internalType": "uint256",
          "name": "_area",
          "type": "uint256"
        },
        {
          "internalType": "address",
          "name": "_employeeId",
          "type": "address"
        },
        {
          "internalType": "string",
          "name": "_scheduledDate",
          "type": "string"
        },
        {
          "internalType": "string",
          "name": "_rejectedReason",
          "type": "string"
        },
        {
          "internalType": "enum Property.StateOfProperty",
          "name": "_state",
          "type": "uint8"
        }
      ],
      "name": "updateLand",
      "outputs": [],
      "stateMutability": "nonpayable",
      "type": "function"
    },
    {
      "inputs": [
        {
          "internalType": "uint256",
          "name": "_propertyId",
          "type": "uint256"
        },
        {
          "internalType": "address",
          "name": "_employeeId",
          "type": "address"
        }
      ],
      "name": "changeStateToVerifed",
      "outputs": [],
      "stateMutability": "nonpayable",
      "type": "function"
    },
    {
      "inputs": [
        {
          "internalType": "uint256",
          "name": "_propertyId",
          "type": "uint256"
        },
        {
          "internalType": "address",
          "name": "_employeeId",
          "type": "address"
        },
        {
          "internalType": "string",
          "name": "_reason",
          "type": "string"
        }
      ],
      "name": "changeStateToRejected",
      "outputs": [],
      "stateMutability": "nonpayable",
      "type": "function"
    },
    {
      "inputs": [
        {
          "internalType": "uint256",
          "name": "_propertyId",
          "type": "uint256"
        },
        {
          "internalType": "address",
          "name": "_owner",
          "type": "address"
        }
      ],
      "name": "changeStateToOnSale",
      "outputs": [],
      "stateMutability": "nonpayable",
      "type": "function"
    },
    {
      "inputs": [
        {
          "internalType": "uint256",
          "name": "_propertyId",
          "type": "uint256"
        },
        {
          "internalType": "address",
          "name": "_owner",
          "type": "address"
        }
      ],
      "name": "changeStateBackToVerificed",
      "outputs": [],
      "stateMutability": "nonpayable",
      "type": "function"
    },
    {
      "inputs": [
        {
          "internalType": "uint256",
          "name": "_propertyId",
          "type": "uint256"
        },
        {
          "internalType": "address",
          "name": "newOwner",
          "type": "address"
        }
      ],
      "name": "updateOwner",
      "outputs": [],
      "stateMutability": "nonpayable",
      "type": "function"
    }
  ],
  "bytecode": "0x608060405234801561001057600080fd5b50612329806100206000396000f3fe608060405234801561001057600080fd5b50600436106100b45760003560e01c80639bcff9ba116100715780639bcff9ba14610175578063a89dae8214610191578063d1cdb59e146101c1578063e261f1e5146101f1578063f4eff9da1461022c578063fbb62fe714610248576100b4565b806302402589146100b957806313fe24f7146100e95780637192711f1461010557806377d90c66146101215780637b5484a81461013d57806397f15c0214610159575b600080fd5b6100d360048036038101906100ce91906114ba565b610278565b6040516100e09190611544565b60405180910390f35b61010360048036038101906100fe91906116ca565b61053f565b005b61011f600480360381019061011a91906117e1565b610736565b005b61013b60048036038101906101369190611821565b610824565b005b610157600480360381019061015291906117e1565b61094e565b005b610173600480360381019061016e919061184e565b610a8b565b005b61018f600480360381019061018a91906117e1565b610b9d565b005b6101ab60048036038101906101a691906118f3565b610cda565b6040516101b8919061193b565b60405180910390f35b6101db60048036038101906101d69190611956565b610cfa565b6040516101e891906119b8565b60405180910390f35b61020b60048036038101906102069190611821565b610d30565b6040516102239c9b9a99989796959493929190611ad8565b60405180910390f35b610246600480360381019061024191906117e1565b610eed565b005b610262600480360381019061025d9190611821565b610fdb565b60405161026f9190611d22565b60405180910390f35b600080610286878787610cfa565b9050600015156001600083815260200190815260200160002060009054906101000a900460ff161515146102ef576040517f08c379a00000000000000000000000000000000000000000000000000000000081526004016102e690611db6565b60405180910390fd5b6002600081548092919061030290611e05565b919050555060405180610180016040528060025481526020018881526020018781526020018681526020018573ffffffffffffffffffffffffffffffffffffffff16815260200184815260200160008152602001428152602001600073ffffffffffffffffffffffffffffffffffffffff168152602001604051806020016040528060008152508152602001604051806020016040528060008152508152602001600060058111156103b7576103b6611a61565b5b81525060008060025481526020019081526020016000206000820151816000015560208201518160010155604082015181600201556060820151816003015560808201518160040160006101000a81548173ffffffffffffffffffffffffffffffffffffffff021916908373ffffffffffffffffffffffffffffffffffffffff16021790555060a0820151816005015560c0820151816006015560e082015181600701556101008201518160080160006101000a81548173ffffffffffffffffffffffffffffffffffffffff021916908373ffffffffffffffffffffffffffffffffffffffff1602179055506101208201518160090190816104b99190612059565b5061014082015181600a0190816104d09190612059565b5061016082015181600b0160006101000a81548160ff021916908360058111156104fd576104fc611a61565b5b0217905550905050600180600083815260200190815260200160002060006101000a81548160ff02191690831515021790555060025491505095945050505050565b60008060008c81526020019081526020016000206000015403610597576040517f08c379a000000000000000000000000000000000000000000000000000000000815260040161058e90612177565b60405180910390fd5b886000808c815260200190815260200160002060010181905550876000808c815260200190815260200160002060020181905550866000808c815260200190815260200160002060030181905550856000808c815260200190815260200160002060040160006101000a81548173ffffffffffffffffffffffffffffffffffffffff021916908373ffffffffffffffffffffffffffffffffffffffff160217905550846000808c815260200190815260200160002060050181905550836000808c815260200190815260200160002060080160006101000a81548173ffffffffffffffffffffffffffffffffffffffff021916908373ffffffffffffffffffffffffffffffffffffffff160217905550826000808c815260200190815260200160002060090190816106c99190612059565b50816000808c8152602001908152602001600020600a0190816106ec9190612059565b50806000808c8152602001908152602001600020600b0160006101000a81548160ff0219169083600581111561072557610724611a61565b5b021790555050505050505050505050565b6000806000848152602001908152602001600020600001540361078e576040517f08c379a000000000000000000000000000000000000000000000000000000000815260040161078590612177565b60405180910390fd5b8060008084815260200190815260200160002060040160006101000a81548173ffffffffffffffffffffffffffffffffffffffff021916908373ffffffffffffffffffffffffffffffffffffffff1602179055506005600080848152602001908152602001600020600b0160006101000a81548160ff0219169083600581111561081b5761081a611a61565b5b02179055505050565b6000806000838152602001908152602001600020600001540361087c576040517f08c379a000000000000000000000000000000000000000000000000000000000815260040161087390612177565b60405180910390fd5b6000808281526020019081526020016000206000808201600090556001820160009055600282016000905560038201600090556004820160006101000a81549073ffffffffffffffffffffffffffffffffffffffff02191690556005820160009055600682016000905560078201600090556008820160006101000a81549073ffffffffffffffffffffffffffffffffffffffff02191690556009820160006109259190611316565b600a820160006109359190611316565b600b820160006101000a81549060ff0219169055505050565b600080600084815260200190815260200160002060000154036109a6576040517f08c379a000000000000000000000000000000000000000000000000000000000815260040161099d90612177565b60405180910390fd5b8073ffffffffffffffffffffffffffffffffffffffff1660008084815260200190815260200160002060040160009054906101000a900473ffffffffffffffffffffffffffffffffffffffff1673ffffffffffffffffffffffffffffffffffffffff1614610a49576040517f08c379a0000000000000000000000000000000000000000000000000000000008152600401610a40906121e3565b60405180910390fd5b6002600080848152602001908152602001600020600b0160006101000a81548160ff02191690836005811115610a8257610a81611a61565b5b02179055505050565b60008060008581526020019081526020016000206000015403610ae3576040517f08c379a0000000000000000000000000000000000000000000000000000000008152600401610ada90612177565b60405180910390fd5b8160008085815260200190815260200160002060080160006101000a81548173ffffffffffffffffffffffffffffffffffffffff021916908373ffffffffffffffffffffffffffffffffffffffff1602179055506003600080858152602001908152602001600020600b0160006101000a81548160ff02191690836005811115610b7057610b6f611a61565b5b021790555080600080858152602001908152602001600020600a019081610b979190612059565b50505050565b60008060008481526020019081526020016000206000015403610bf5576040517f08c379a0000000000000000000000000000000000000000000000000000000008152600401610bec90612177565b60405180910390fd5b8073ffffffffffffffffffffffffffffffffffffffff1660008084815260200190815260200160002060040160009054906101000a900473ffffffffffffffffffffffffffffffffffffffff1673ffffffffffffffffffffffffffffffffffffffff1614610c98576040517f08c379a0000000000000000000000000000000000000000000000000000000008152600401610c8f90612275565b60405180910390fd5b6004600080848152602001908152602001600020600b0160006101000a81548160ff02191690836005811115610cd157610cd0611a61565b5b02179055505050565b60016020528060005260406000206000915054906101000a900460ff1681565b6000838383604051602001610d11939291906122b6565b6040516020818303038152906040528051906020012090509392505050565b60006020528060005260406000206000915090508060000154908060010154908060020154908060030154908060040160009054906101000a900473ffffffffffffffffffffffffffffffffffffffff16908060050154908060060154908060070154908060080160009054906101000a900473ffffffffffffffffffffffffffffffffffffffff1690806009018054610dc990611e7c565b80601f0160208091040260200160405190810160405280929190818152602001828054610df590611e7c565b8015610e425780601f10610e1757610100808354040283529160200191610e42565b820191906000526020600020905b815481529060010190602001808311610e2557829003601f168201915b50505050509080600a018054610e5790611e7c565b80601f0160208091040260200160405190810160405280929190818152602001828054610e8390611e7c565b8015610ed05780601f10610ea557610100808354040283529160200191610ed0565b820191906000526020600020905b815481529060010190602001808311610eb357829003601f168201915b50505050509080600b0160009054906101000a900460ff1690508c565b60008060008481526020019081526020016000206000015403610f45576040517f08c379a0000000000000000000000000000000000000000000000000000000008152600401610f3c90612177565b60405180910390fd5b8060008084815260200190815260200160002060080160006101000a81548173ffffffffffffffffffffffffffffffffffffffff021916908373ffffffffffffffffffffffffffffffffffffffff1602179055506002600080848152602001908152602001600020600b0160006101000a81548160ff02191690836005811115610fd257610fd1611a61565b5b02179055505050565b610fe3611356565b6000806000848152602001908152602001600020600001540361103b576040517f08c379a000000000000000000000000000000000000000000000000000000000815260040161103290612177565b60405180910390fd5b60405180610180016040528083815260200160008085815260200190815260200160002060010154815260200160008085815260200190815260200160002060020154815260200160008085815260200190815260200160002060030154815260200160008085815260200190815260200160002060040160009054906101000a900473ffffffffffffffffffffffffffffffffffffffff1673ffffffffffffffffffffffffffffffffffffffff16815260200160008085815260200190815260200160002060050154815260200160008085815260200190815260200160002060060154815260200160008085815260200190815260200160002060070154815260200160008085815260200190815260200160002060080160009054906101000a900473ffffffffffffffffffffffffffffffffffffffff1673ffffffffffffffffffffffffffffffffffffffff16815260200160008085815260200190815260200160002060090180546111b190611e7c565b80601f01602080910402602001604051908101604052809291908181526020018280546111dd90611e7c565b801561122a5780601f106111ff5761010080835404028352916020019161122a565b820191906000526020600020905b81548152906001019060200180831161120d57829003601f168201915b50505050508152602001600080858152602001908152602001600020600a01805461125490611e7c565b80601f016020809104026020016040519081016040528092919081815260200182805461128090611e7c565b80156112cd5780601f106112a2576101008083540402835291602001916112cd565b820191906000526020600020905b8154815290600101906020018083116112b057829003601f168201915b50505050508152602001600080858152602001908152602001600020600b0160009054906101000a900460ff16600581111561130c5761130b611a61565b5b8152509050919050565b50805461132290611e7c565b6000825580601f106113345750611353565b601f01602090049060005260206000209081019061135291906113f5565b5b50565b60405180610180016040528060008152602001600081526020016000815260200160008152602001600073ffffffffffffffffffffffffffffffffffffffff168152602001600081526020016000815260200160008152602001600073ffffffffffffffffffffffffffffffffffffffff1681526020016060815260200160608152602001600060058111156113ef576113ee611a61565b5b81525090565b5b8082111561140e5760008160009055506001016113f6565b5090565b6000604051905090565b600080fd5b600080fd5b6000819050919050565b61143981611426565b811461144457600080fd5b50565b60008135905061145681611430565b92915050565b600073ffffffffffffffffffffffffffffffffffffffff82169050919050565b60006114878261145c565b9050919050565b6114978161147c565b81146114a257600080fd5b50565b6000813590506114b48161148e565b92915050565b600080600080600060a086880312156114d6576114d561141c565b5b60006114e488828901611447565b95505060206114f588828901611447565b945050604061150688828901611447565b9350506060611517888289016114a5565b925050608061152888828901611447565b9150509295509295909350565b61153e81611426565b82525050565b60006020820190506115596000830184611535565b92915050565b600080fd5b600080fd5b6000601f19601f8301169050919050565b7f4e487b7100000000000000000000000000000000000000000000000000000000600052604160045260246000fd5b6115b282611569565b810181811067ffffffffffffffff821117156115d1576115d061157a565b5b80604052505050565b60006115e4611412565b90506115f082826115a9565b919050565b600067ffffffffffffffff8211156116105761160f61157a565b5b61161982611569565b9050602081019050919050565b82818337600083830152505050565b6000611648611643846115f5565b6115da565b90508281526020810184848401111561166457611663611564565b5b61166f848285611626565b509392505050565b600082601f83011261168c5761168b61155f565b5b813561169c848260208601611635565b91505092915050565b600681106116b257600080fd5b50565b6000813590506116c4816116a5565b92915050565b6000806000806000806000806000806101408b8d0312156116ee576116ed61141c565b5b60006116fc8d828e01611447565b9a5050602061170d8d828e01611447565b995050604061171e8d828e01611447565b985050606061172f8d828e01611447565b97505060806117408d828e016114a5565b96505060a06117518d828e01611447565b95505060c06117628d828e016114a5565b94505060e08b013567ffffffffffffffff81111561178357611782611421565b5b61178f8d828e01611677565b9350506101008b013567ffffffffffffffff8111156117b1576117b0611421565b5b6117bd8d828e01611677565b9250506101206117cf8d828e016116b5565b9150509295989b9194979a5092959850565b600080604083850312156117f8576117f761141c565b5b600061180685828601611447565b9250506020611817858286016114a5565b9150509250929050565b6000602082840312156118375761183661141c565b5b600061184584828501611447565b91505092915050565b6000806000606084860312156118675761186661141c565b5b600061187586828701611447565b9350506020611886868287016114a5565b925050604084013567ffffffffffffffff8111156118a7576118a6611421565b5b6118b386828701611677565b9150509250925092565b6000819050919050565b6118d0816118bd565b81146118db57600080fd5b50565b6000813590506118ed816118c7565b92915050565b6000602082840312156119095761190861141c565b5b6000611917848285016118de565b91505092915050565b60008115159050919050565b61193581611920565b82525050565b6000602082019050611950600083018461192c565b92915050565b60008060006060848603121561196f5761196e61141c565b5b600061197d86828701611447565b935050602061198e86828701611447565b925050604061199f86828701611447565b9150509250925092565b6119b2816118bd565b82525050565b60006020820190506119cd60008301846119a9565b92915050565b6119dc8161147c565b82525050565b600081519050919050565b600082825260208201905092915050565b60005b83811015611a1c578082015181840152602081019050611a01565b60008484015250505050565b6000611a33826119e2565b611a3d81856119ed565b9350611a4d8185602086016119fe565b611a5681611569565b840191505092915050565b7f4e487b7100000000000000000000000000000000000000000000000000000000600052602160045260246000fd5b60068110611aa157611aa0611a61565b5b50565b6000819050611ab282611a90565b919050565b6000611ac282611aa4565b9050919050565b611ad281611ab7565b82525050565b600061018082019050611aee600083018f611535565b611afb602083018e611535565b611b08604083018d611535565b611b15606083018c611535565b611b22608083018b6119d3565b611b2f60a083018a611535565b611b3c60c0830189611535565b611b4960e0830188611535565b611b576101008301876119d3565b818103610120830152611b6a8186611a28565b9050818103610140830152611b7f8185611a28565b9050611b8f610160830184611ac9565b9d9c50505050505050505050505050565b611ba981611426565b82525050565b611bb88161147c565b82525050565b600082825260208201905092915050565b6000611bda826119e2565b611be48185611bbe565b9350611bf48185602086016119fe565b611bfd81611569565b840191505092915050565b611c1181611ab7565b82525050565b600061018083016000830151611c306000860182611ba0565b506020830151611c436020860182611ba0565b506040830151611c566040860182611ba0565b506060830151611c696060860182611ba0565b506080830151611c7c6080860182611baf565b5060a0830151611c8f60a0860182611ba0565b5060c0830151611ca260c0860182611ba0565b5060e0830151611cb560e0860182611ba0565b50610100830151611cca610100860182611baf565b50610120830151848203610120860152611ce48282611bcf565b915050610140830151848203610140860152611d008282611bcf565b915050610160830151611d17610160860182611c08565b508091505092915050565b60006020820190508181036000830152611d3c8184611c17565b905092915050565b7f4c616e6420616c7265616479207265676973746572656420776974682074686560008201527f73652064657461696c7300000000000000000000000000000000000000000000602082015250565b6000611da0602a836119ed565b9150611dab82611d44565b604082019050919050565b60006020820190508181036000830152611dcf81611d93565b9050919050565b7f4e487b7100000000000000000000000000000000000000000000000000000000600052601160045260246000fd5b6000611e1082611426565b91507fffffffffffffffffffffffffffffffffffffffffffffffffffffffffffffffff8203611e4257611e41611dd6565b5b600182019050919050565b7f4e487b7100000000000000000000000000000000000000000000000000000000600052602260045260246000fd5b60006002820490506001821680611e9457607f821691505b602082108103611ea757611ea6611e4d565b5b50919050565b60008190508160005260206000209050919050565b60006020601f8301049050919050565b600082821b905092915050565b600060088302611f0f7fffffffffffffffffffffffffffffffffffffffffffffffffffffffffffffffff82611ed2565b611f198683611ed2565b95508019841693508086168417925050509392505050565b6000819050919050565b6000611f56611f51611f4c84611426565b611f31565b611426565b9050919050565b6000819050919050565b611f7083611f3b565b611f84611f7c82611f5d565b848454611edf565b825550505050565b600090565b611f99611f8c565b611fa4818484611f67565b505050565b5b81811015611fc857611fbd600082611f91565b600181019050611faa565b5050565b601f82111561200d57611fde81611ead565b611fe784611ec2565b81016020851015611ff6578190505b61200a61200285611ec2565b830182611fa9565b50505b505050565b600082821c905092915050565b600061203060001984600802612012565b1980831691505092915050565b6000612049838361201f565b9150826002028217905092915050565b612062826119e2565b67ffffffffffffffff81111561207b5761207a61157a565b5b6120858254611e7c565b612090828285611fcc565b600060209050601f8311600181146120c357600084156120b1578287015190505b6120bb858261203d565b865550612123565b601f1984166120d186611ead565b60005b828110156120f9578489015182556001820191506020850194506020810190506120d4565b868310156121165784890151612112601f89168261201f565b8355505b6001600288020188555050505b505050505050565b7f4c616e6420646f6573206e6f7420657869737400000000000000000000000000600082015250565b60006121616013836119ed565b915061216c8261212b565b602082019050919050565b6000602082019050818103600083015261219081612154565b9050919050565b7f6f6e6c79206f776e65722068697320616c6c6f77656400000000000000000000600082015250565b60006121cd6016836119ed565b91506121d882612197565b602082019050919050565b600060208201905081810360008301526121fc816121c0565b9050919050565b7f6f6e6c79206f776e65722063616e206d616b6520617661696c61626c6520746f60008201527f2073656c6c000000000000000000000000000000000000000000000000000000602082015250565b600061225f6025836119ed565b915061226a82612203565b604082019050919050565b6000602082019050818103600083015261228e81612252565b9050919050565b6000819050919050565b6122b06122ab82611426565b612295565b82525050565b60006122c2828661229f565b6020820191506122d2828561229f565b6020820191506122e2828461229f565b60208201915081905094935050505056fea2646970667358221220c9c91f9131052988f7e4c38ade40d95c320123b7dc540757e34a2da166a547be64736f6c63430008120033",
  "immutableReferences": {},
  "source": "// SPDX-License-Identifier: MIT\r\npragma solidity >=0.4.22 <0.9.0;\r\n\r\n\r\ncontract Property {\r\n    \r\n\r\n    // Created   : Represents, inintal state, when property details are added by user\r\n    // Scheduled : Represents, when correponding surveyer scheduled for verification\r\n    // Rejected  : Represents, property is rejected by surveyer\r\n    // Verified  : Represents, property is verified.\r\n    enum StateOfProperty { \r\n        Created, \r\n        Scheduled, \r\n        Verified, \r\n        Rejected,\r\n        OnSale,\r\n        Bought\r\n        }\r\n    \r\n\r\n    struct Land {\r\n        uint256 propertyId;\r\n        uint256 locationId;\r\n        uint256 revenueDepartmentId;\r\n        uint256 surveyNumber;\r\n        address owner;\r\n        uint256 area;\r\n        uint256 price;\r\n        uint256 registeredTime;\r\n        address employeeId;\r\n        string scheduledDate;\r\n        string rejectedReason;\r\n        StateOfProperty state;\r\n    }\r\n    \r\n\r\n    // property Id ==> property\r\n    mapping(uint256 => Land) public lands;\r\n\r\n    // uniqueness check: keccak256(locationId, revenueDepartmentId, surveyNumber) => bool\r\n    mapping(bytes32 => bool) public landExists;\r\n\r\n    // used to generate property id\r\n    uint256 private landCount;\r\n    \r\n    function generateLandHash(\r\n        uint256 _locationId,\r\n        uint256 _revenueDepartmentId,\r\n        uint256 _surveyNumber\r\n    ) public pure returns (bytes32) {\r\n        return keccak256(abi.encodePacked(_locationId, _revenueDepartmentId, _surveyNumber));\r\n    }\r\n    \r\n    function addLand(\r\n        uint256 _locationId,\r\n        uint256 _revenueDepartmentId,\r\n        uint256 _surveyNumber,\r\n        address _owner,\r\n        uint256 _area\r\n    ) public returns (uint256) {\r\n        bytes32 landHash = generateLandHash(_locationId, _revenueDepartmentId, _surveyNumber);\r\n        require(landExists[landHash] == false, \"Land already registered with these details\");\r\n\r\n        landCount++;\r\n\r\n        lands[landCount] = Land({\r\n            propertyId: landCount,\r\n            locationId: _locationId,\r\n            revenueDepartmentId: _revenueDepartmentId,\r\n            surveyNumber: _surveyNumber,\r\n            owner: _owner,\r\n            area: _area,\r\n            price:0,\r\n            registeredTime: block.timestamp,\r\n            employeeId: address(0),\r\n            scheduledDate: \"\",\r\n            rejectedReason: \"\",\r\n            state: StateOfProperty.Created\r\n        });\r\n\r\n        landExists[landHash] = true;\r\n\r\n        // return propertyId\r\n        return landCount;\r\n    }\r\n\r\n\r\n    function getLandDetailsAsStruct(uint256 _propertyId) public view returns (Land memory){\r\n        require(lands[_propertyId].propertyId != 0, \"Land does not exist\");\r\n\r\n    \r\n        return (Land({\r\n            propertyId: _propertyId,\r\n            locationId: lands[_propertyId].locationId,\r\n            revenueDepartmentId: lands[_propertyId].revenueDepartmentId,\r\n            surveyNumber: lands[_propertyId].surveyNumber,\r\n            owner: lands[_propertyId].owner,\r\n            area: lands[_propertyId].area,\r\n            price:lands[_propertyId].price,\r\n            registeredTime: lands[_propertyId].registeredTime,\r\n            employeeId: lands[_propertyId].employeeId,\r\n            scheduledDate: lands[_propertyId].scheduledDate,\r\n            rejectedReason: lands[_propertyId].rejectedReason,\r\n            state: lands[_propertyId].state\r\n        }));\r\n\r\n    }\r\n\r\n    \r\n    function removeLand(uint256 _propertyId) public {\r\n        require(lands[_propertyId].propertyId != 0, \"Land does not exist\");\r\n        delete lands[_propertyId];\r\n    }\r\n    \r\n    function updateLand(\r\n        uint256 _propertyId,\r\n        uint256 _locationId,\r\n        uint256 _revenueDepartmentId,\r\n        uint256 _surveyNumber,\r\n        address _owner,\r\n        uint256 _area,\r\n        address _employeeId,\r\n        string memory _scheduledDate,\r\n        string memory _rejectedReason,\r\n        StateOfProperty _state\r\n    ) public {\r\n        require(lands[_propertyId].propertyId != 0, \"Land does not exist\");\r\n        \r\n        lands[_propertyId].locationId = _locationId;\r\n        lands[_propertyId].revenueDepartmentId = _revenueDepartmentId;\r\n        lands[_propertyId].surveyNumber = _surveyNumber;\r\n        lands[_propertyId].owner = _owner;\r\n        lands[_propertyId].area = _area;\r\n        lands[_propertyId].employeeId = _employeeId;\r\n        lands[_propertyId].scheduledDate = _scheduledDate;\r\n        lands[_propertyId].rejectedReason = _rejectedReason;\r\n        lands[_propertyId].state = _state;\r\n    }\r\n\r\n\r\n    function changeStateToVerifed(\r\n        uint256 _propertyId,\r\n        address _employeeId\r\n    ) public {\r\n        require(lands[_propertyId].propertyId != 0, \"Land does not exist\");\r\n\r\n        lands[_propertyId].employeeId = _employeeId;\r\n        lands[_propertyId].state = StateOfProperty.Verified;\r\n    }\r\n\r\n     function changeStateToRejected(\r\n        uint256 _propertyId,\r\n        address _employeeId,\r\n        string memory _reason\r\n    ) public {\r\n        require(lands[_propertyId].propertyId != 0, \"Land does not exist\");\r\n\r\n        lands[_propertyId].employeeId = _employeeId;\r\n        lands[_propertyId].state = StateOfProperty.Rejected;\r\n        lands[_propertyId].rejectedReason = _reason;\r\n    }\r\n\r\n   \r\n    function changeStateToOnSale(\r\n        uint256 _propertyId,\r\n        address _owner\r\n    ) public {\r\n        require(lands[_propertyId].propertyId != 0, \"Land does not exist\");\r\n        require(lands[_propertyId].owner == _owner, \"only owner can make available to sell\" );\r\n\r\n        lands[_propertyId].state = StateOfProperty.OnSale;\r\n    }\r\n\r\n\r\n    // function to change state from on sale to verified \r\n    // when sale is canceled from active state\r\n    function changeStateBackToVerificed(\r\n        uint256 _propertyId,\r\n        address _owner\r\n    ) public {\r\n        require(lands[_propertyId].propertyId != 0, \"Land does not exist\");\r\n        require(lands[_propertyId].owner == _owner, \"only owner his allowed\" );\r\n\r\n        lands[_propertyId].state = StateOfProperty.Verified;\r\n    }\r\n\r\n\r\n    function updateOwner(\r\n        uint256 _propertyId,\r\n        address newOwner\r\n    ) public {\r\n        require(lands[_propertyId].propertyId != 0, \"Land does not exist\");\r\n\r\n        // changing new owner\r\n        lands[_propertyId].owner = newOwner;\r\n\r\n        // changing state back to verified \r\n        // after successful ownership transfer\r\n        lands[_propertyId].state = StateOfProperty.Bought;\r\n\r\n        \r\n    }\r\n\r\n}\r\n",
  "sourcePath": "c:\\Users\\Natykufsky\\Desktop\\Apps\\python\\Blockchain-Powered-Land-Registration-System\\Smart_contracts\\contracts\\Properties.sol",
  "compiler": {
    "name": "solc",
    "version": "0.8.18+commit.87f61d96.Emscripten.clang"
  },
  "schemaVersion": "3.4.16",
  "updatedAt": "2026-02-10T15:51:43.908Z",
  "devdoc": {
    "kind": "dev",
    "methods": {},
    "version": 1
  },
  "userdoc": {
    "kind": "user",
    "methods": {},
    "version": 1
  }
}