{
  "contractName": "TransferOwnerShip",
  "abi": [
    {
      "inputs": [
        {
          "internalType": "address",
          "name": "_landRegistryContractAddress",
          "type": "address"
        }
      ],
      "stateMutability": "nonpayable",
      "type": "constructor"
    },
    {
      "anonymous": false,
      "inputs": [
        {
          "indexed": true,
          "internalType": "address",
          "name": "owner",
          "type": "address"
        },
        {
          "indexed": true,
          "internalType": "uint256",
          "name": "propertyId",
          "type": "uint256"
        },
        {
          "indexed": false,
          "internalType": "uint256",
          "name": "saleId",
          "type": "uint256"
        }
      ],
      "name": "PropertyOnSale",
      "type": "event"
    },
    {
      "anonymous": false,
      "inputs": [
        {
          "indexed": false,
          "internalType": "uint256",
          "name": "saleId",
          "type": "uint256"
        },
        {
          "indexed": false,
          "internalType": "address",
          "name": "requestedUser",
          "type": "address"
        },
        {
          "indexed": false,
          "internalType": "uint256",
          "name": "priceOffered",
          "type": "uint256"
        }
      ],
      "name": "PurchaseRequestSent",
      "type": "event"
    },
    {
      "anonymous": false,
      "inputs": [
        {
          "indexed": false,
          "internalType": "uint256",
          "name": "saleId",
          "type": "uint256"
        },
        {
          "indexed": false,
          "internalType": "address",
          "name": "buyer",
          "type": "address"
        },
        {
          "indexed": false,
          "internalType": "uint256",
          "name": "price",
          "type": "uint256"
        },
        {
          "indexed": false,
          "internalType": "uint256",
          "name": "deadline",
          "type": "uint256"
        }
      ],
      "name": "SaleAccepted",
      "type": "event"
    },
    {
      "inputs": [
        {
          "internalType": "address",
          "name": "",
          "type": "address"
        },
        {
          "internalType": "uint256",
          "name": "",
          "type": "uint256"
        }
      ],
      "name": "requestedSales",
      "outputs": [
        {
          "internalType": "uint256",
          "name": "",
          "type": "uint256"
        }
      ],
      "stateMutability": "view",
      "type": "function",
      "constant": true
    },
    {
      "inputs": [
        {
          "internalType": "uint256",
          "name": "etherValue",
          "type": "uint256"
        }
      ],
      "name": "convertToWei",
      "outputs": [
        {
          "internalType": "uint256",
          "name": "",
          "type": "uint256"
        }
      ],
      "stateMutability": "pure",
      "type": "function",
      "constant": true
    },
    {
      "inputs": [
        {
          "internalType": "uint256",
          "name": "_propertyId",
          "type": "uint256"
        },
        {
          "internalType": "uint256",
          "name": "_price",
          "type": "uint256"
        }
      ],
      "name": "addPropertyOnSale",
      "outputs": [],
      "stateMutability": "nonpayable",
      "type": "function"
    },
    {
      "inputs": [
        {
          "internalType": "address",
          "name": "_owner",
          "type": "address"
        }
      ],
      "name": "getMySales",
      "outputs": [
        {
          "components": [
            {
              "internalType": "uint256",
              "name": "saleId",
              "type": "uint256"
            },
            {
              "internalType": "address",
              "name": "owner",
              "type": "address"
            },
            {
              "internalType": "uint256",
              "name": "price",
              "type": "uint256"
            },
            {
              "internalType": "uint256",
              "name": "propertyId",
              "type": "uint256"
            },
            {
              "internalType": "address",
              "name": "acceptedFor",
              "type": "address"
            },
            {
              "internalType": "uint256",
              "name": "acceptedPrice",
              "type": "uint256"
            },
            {
              "internalType": "uint256",
              "name": "acceptedTime",
              "type": "uint256"
            },
            {
              "internalType": "uint256",
              "name": "deadlineForPayment",
              "type": "uint256"
            },
            {
              "internalType": "bool",
              "name": "paymentDone",
              "type": "bool"
            },
            {
              "internalType": "enum TransferOwnerShip.SaleState",
              "name": "state",
              "type": "uint8"
            }
          ],
          "internalType": "struct TransferOwnerShip.Sales[]",
          "name": "",
          "type": "tuple[]"
        }
      ],
      "stateMutability": "view",
      "type": "function",
      "constant": true
    },
    {
      "inputs": [
        {
          "internalType": "uint256",
          "name": "saleId",
          "type": "uint256"
        }
      ],
      "name": "getRequestedUsers",
      "outputs": [
        {
          "components": [
            {
              "internalType": "address",
              "name": "user",
              "type": "address"
            },
            {
              "internalType": "uint256",
              "name": "priceOffered",
              "type": "uint256"
            },
            {
              "internalType": "enum TransferOwnerShip.RequestedUserToASaleState",
              "name": "state",
              "type": "uint8"
            }
          ],
          "internalType": "struct TransferOwnerShip.RequestedUser[]",
          "name": "",
          "type": "tuple[]"
        }
      ],
      "stateMutability": "view",
      "type": "function",
      "constant": true
    },
    {
      "inputs": [
        {
          "internalType": "address",
          "name": "_owner",
          "type": "address"
        }
      ],
      "name": "getRequestedSales",
      "outputs": [
        {
          "components": [
            {
              "internalType": "uint256",
              "name": "saleId",
              "type": "uint256"
            },
            {
              "internalType": "address",
              "name": "owner",
              "type": "address"
            },
            {
              "internalType": "uint256",
              "name": "price",
              "type": "uint256"
            },
            {
              "internalType": "uint256",
              "name": "propertyId",
              "type": "uint256"
            },
            {
              "internalType": "address",
              "name": "acceptedFor",
              "type": "address"
            },
            {
              "internalType": "uint256",
              "name": "acceptedPrice",
              "type": "uint256"
            },
            {
              "internalType": "uint256",
              "name": "acceptedTime",
              "type": "uint256"
            },
            {
              "internalType": "uint256",
              "name": "deadlineForPayment",
              "type": "uint256"
            },
            {
              "internalType": "bool",
              "name": "paymentDone",
              "type": "bool"
            },
            {
              "internalType": "enum TransferOwnerShip.SaleState",
              "name": "state",
              "type": "uint8"
            }
          ],
          "internalType": "struct TransferOwnerShip.Sales[]",
          "name": "",
          "type": "tuple[]"
        }
      ],
      "stateMutability": "view",
      "type": "function",
      "constant": true
    },
    {
      "inputs": [
        {
          "internalType": "uint256",
          "name": "_saleId",
          "type": "uint256"
        }
      ],
      "name": "getStatusOfPurchaseRequest",
      "outputs": [
        {
          "components": [
            {
              "internalType": "address",
              "name": "user",
              "type": "address"
            },
            {
              "internalType": "uint256",
              "name": "priceOffered",
              "type": "uint256"
            },
            {
              "internalType": "enum TransferOwnerShip.RequestedUserToASaleState",
              "name": "state",
              "type": "uint8"
            }
          ],
          "internalType": "struct TransferOwnerShip.RequestedUser",
          "name": "",
          "type": "tuple"
        }
      ],
      "stateMutability": "view",
      "type": "function",
      "constant": true
    },
    {
      "inputs": [
        {
          "internalType": "uint256",
          "name": "locationId",
          "type": "uint256"
        }
      ],
      "name": "getSalesByLocation",
      "outputs": [
        {
          "components": [
            {
              "internalType": "uint256",
              "name": "saleId",
              "type": "uint256"
            },
            {
              "internalType": "address",
              "name": "owner",
              "type": "address"
            },
            {
              "internalType": "uint256",
              "name": "price",
              "type": "uint256"
            },
            {
              "internalType": "uint256",
              "name": "propertyId",
              "type": "uint256"
            },
            {
              "internalType": "address",
              "name": "acceptedFor",
              "type": "address"
            },
            {
              "internalType": "uint256",
              "name": "acceptedPrice",
              "type": "uint256"
            },
            {
              "internalType": "uint256",
              "name": "acceptedTime",
              "type": "uint256"
            },
            {
              "internalType": "uint256",
              "name": "deadlineForPayment",
              "type": "uint256"
            },
            {
              "internalType": "bool",
              "name": "paymentDone",
              "type": "bool"
            },
            {
              "internalType": "enum TransferOwnerShip.SaleState",
              "name": "state",
              "type": "uint8"
            }
          ],
          "internalType": "struct TransferOwnerShip.Sales[]",
          "name": "",
          "type": "tuple[]"
        }
      ],
      "stateMutability": "view",
      "type": "function",
      "constant": true
    },
    {
      "inputs": [
        {
          "internalType": "uint256",
          "name": "_saleId",
          "type": "uint256"
        },
        {
          "internalType": "uint256",
          "name": "_priceOffered",
          "type": "uint256"
        }
      ],
      "name": "sendPurchaseRequest",
      "outputs": [],
      "stateMutability": "nonpayable",
      "type": "function"
    },
    {
      "inputs": [
        {
          "internalType": "uint256",
          "name": "_saleId",
          "type": "uint256"
        },
        {
          "internalType": "address",
          "name": "_buyer",
          "type": "address"
        },
        {
          "internalType": "uint256",
          "name": "_price",
          "type": "uint256"
        }
      ],
      "name": "acceptBuyerRequest",
      "outputs": [],
      "stateMutability": "nonpayable",
      "type": "function"
    },
    {
      "inputs": [
        {
          "internalType": "uint256",
          "name": "_saleId",
          "type": "uint256"
        }
      ],
      "name": "cancelSaleBySeller",
      "outputs": [
        {
          "internalType": "bool",
          "name": "",
          "type": "bool"
        }
      ],
      "stateMutability": "nonpayable",
      "type": "function"
    },
    {
      "inputs": [
        {
          "internalType": "uint256",
          "name": "_saleId",
          "type": "uint256"
        }
      ],
      "name": "reactivateSale",
      "outputs": [],
      "stateMutability": "nonpayable",
      "type": "function"
    },
    {
      "inputs": [
        {
          "internalType": "uint256",
          "name": "_saleId",
          "type": "uint256"
        }
      ],
      "name": "rejectingAcceptanceRequestByBuyer",
      "outputs": [],
      "stateMutability": "nonpayable",
      "type": "function"
    },
    {
      "inputs": [
        {
          "internalType": "uint256",
          "name": "_saleId",
          "type": "uint256"
        }
      ],
      "name": "rejectingAcceptanceRequestBySeller",
      "outputs": [],
      "stateMutability": "nonpayable",
      "type": "function"
    },
    {
      "inputs": [
        {
          "internalType": "uint256",
          "name": "_saleId",
          "type": "uint256"
        }
      ],
      "name": "cancelPurchaseRequestSentToSeller",
      "outputs": [],
      "stateMutability": "nonpayable",
      "type": "function"
    },
    {
      "inputs": [
        {
          "internalType": "uint256",
          "name": "_saleId",
          "type": "uint256"
        },
        {
          "internalType": "address",
          "name": "_buyer",
          "type": "address"
        }
      ],
      "name": "rejectPurchaseRequestOfBuyer",
      "outputs": [],
      "stateMutability": "nonpayable",
      "type": "function"
    },
    {
      "inputs": [
        {
          "internalType": "uint256",
          "name": "_saleId",
          "type": "uint256"
        },
        {
          "internalType": "uint256",
          "name": "_priceOffered",
          "type": "uint256"
        }
      ],
      "name": "rerequestPurchaseRequest",
      "outputs": [],
      "stateMutability": "nonpayable",
      "type": "function"
    },
    {
      "inputs": [
        {
          "internalType": "uint256",
          "name": "saleId",
          "type": "uint256"
        }
      ],
      "name": "transferOwnerShip",
      "outputs": [],
      "stateMutability": "payable",
      "type": "function",
      "payable": true
    }
  ],
  "bytecode": "0x60806040523480156200001157600080fd5b50604051620059dc380380620059dc833981810160405281019062000037919062000253565b80600160006101000a81548173ffffffffffffffffffffffffffffffffffffffff021916908373ffffffffffffffffffffffffffffffffffffffff1602179055506000600160009054906101000a900473ffffffffffffffffffffffffffffffffffffffff1673ffffffffffffffffffffffffffffffffffffffff1663b9fe2ff46040518163ffffffff1660e01b8152600401602060405180830381865afa158015620000e8573d6000803e3d6000fd5b505050506040513d601f19601f820116820180604052508101906200010e919062000253565b9050806000806101000a81548173ffffffffffffffffffffffffffffffffffffffff021916908373ffffffffffffffffffffffffffffffffffffffff160217905550600160009054906101000a900473ffffffffffffffffffffffffffffffffffffffff1673ffffffffffffffffffffffffffffffffffffffff16630cf36e57306040518263ffffffff1660e01b8152600401620001ad919062000296565b600060405180830381600087803b158015620001c857600080fd5b505af1158015620001dd573d6000803e3d6000fd5b505050505050620002b3565b600080fd5b600073ffffffffffffffffffffffffffffffffffffffff82169050919050565b60006200021b82620001ee565b9050919050565b6200022d816200020e565b81146200023957600080fd5b50565b6000815190506200024d8162000222565b92915050565b6000602082840312156200026c576200026b620001e9565b5b60006200027c848285016200023c565b91505092915050565b62000290816200020e565b82525050565b6000602082019050620002ad600083018462000285565b92915050565b61571980620002c36000396000f3fe6080604052600436106101095760003560e01c8063a60dc38a11610095578063c921147f11610064578063c921147f1461038e578063cff286d4146103cb578063d9cc3d1a146103f4578063f62459fd1461041d578063fb9f9bb71461045a57610109565b8063a60dc38a146102ae578063b23ac000146102eb578063ba2961a414610314578063ba36012a1461035157610109565b8063449b6d3d116100dc578063449b6d3d146101da5780635af7d786146102175780637e4bec70146102405780639f79a7f214610269578063a0fe76fb1461029257610109565b80631c32c44c1461010e578063227da9f51461013757806325e0108f146101745780633d4a5ca71461019d575b600080fd5b34801561011a57600080fd5b5061013560048036038101906101309190613b31565b610483565b005b34801561014357600080fd5b5061015e60048036038101906101599190613b31565b61075b565b60405161016b9190613c67565b60405180910390f35b34801561018057600080fd5b5061019b60048036038101906101969190613b31565b6109a5565b005b3480156101a957600080fd5b506101c460048036038101906101bf9190613b31565b610bbf565b6040516101d19190613d73565b60405180910390f35b3480156101e657600080fd5b5061020160048036038101906101fc9190613dc1565b610ccc565b60405161020e9190613fcd565b60405180910390f35b34801561022357600080fd5b5061023e60048036038101906102399190613fef565b610f87565b005b34801561024c57600080fd5b5061026760048036038101906102629190613fef565b6114ad565b005b34801561027557600080fd5b50610290600480360381019061028b9190613fef565b611993565b005b6102ac60048036038101906102a79190613b31565b611c29565b005b3480156102ba57600080fd5b506102d560048036038101906102d09190613b31565b6121a1565b6040516102e2919061403e565b60405180910390f35b3480156102f757600080fd5b50610312600480360381019061030d9190614059565b6121be565b005b34801561032057600080fd5b5061033b60048036038101906103369190613b31565b6126e7565b6040516103489190613fcd565b60405180910390f35b34801561035d57600080fd5b5061037860048036038101906103739190613b31565b612976565b60405161038591906140bb565b60405180910390f35b34801561039a57600080fd5b506103b560048036038101906103b091906140d6565b612d30565b6040516103c2919061403e565b60405180910390f35b3480156103d757600080fd5b506103f260048036038101906103ed9190613b31565b612d61565b005b34801561040057600080fd5b5061041b60048036038101906104169190614116565b6130a9565b005b34801561042957600080fd5b50610444600480360381019061043f9190613dc1565b6133ce565b6040516104519190613fcd565b60405180910390f35b34801561046657600080fd5b50610481600480360381019061047c9190613b31565b613689565b005b60006002828154811061049957610498614156565b5b90600052602060002090600902019050600160068111156104bd576104bc613bae565b5b8160080160019054906101000a900460ff1660068111156104e1576104e0613bae565b5b14806105225750600460068111156104fc576104fb613bae565b5b8160080160019054906101000a900460ff1660068111156105205761051f613bae565b5b145b610561576040517f08c379a000000000000000000000000000000000000000000000000000000000815260040161055890614208565b60405180910390fd5b3373ffffffffffffffffffffffffffffffffffffffff168160040160009054906101000a900473ffffffffffffffffffffffffffffffffffffffff1673ffffffffffffffffffffffffffffffffffffffff16146105f3576040517f08c379a00000000000000000000000000000000000000000000000000000000081526004016105ea9061429a565b60405180910390fd5b60068160080160016101000a81548160ff0219169083600681111561061b5761061a613bae565b5b0217905550600080600090505b6005600084600001548152602001908152602001600020805490508110156106f3573373ffffffffffffffffffffffffffffffffffffffff166005600085600001548152602001908152602001600020828154811061068a57610689614156565b5b906000526020600020906003020160000160009054906101000a900473ffffffffffffffffffffffffffffffffffffffff1673ffffffffffffffffffffffffffffffffffffffff16036106e057600191506106f3565b80806106eb906142e9565b915050610628565b600580600085600001548152602001908152602001600020828154811061071d5761071c614156565b5b906000526020600020906003020160020160006101000a81548160ff021916908360078111156107505761074f613bae565b5b021790555050505050565b610763613a0b565b600080600090505b600560008581526020019081526020016000208054905081101561082e573373ffffffffffffffffffffffffffffffffffffffff166005600086815260200190815260200160002082815481106107c5576107c4614156565b5b906000526020600020906003020160000160009054906101000a900473ffffffffffffffffffffffffffffffffffffffff1673ffffffffffffffffffffffffffffffffffffffff160361081b576001915061082e565b8080610826906142e9565b91505061076b565b600115158215150361095557604051806060016040528060056000878152602001908152602001600020838154811061086a57610869614156565b5b906000526020600020906003020160000160009054906101000a900473ffffffffffffffffffffffffffffffffffffffff1673ffffffffffffffffffffffffffffffffffffffff1681526020016005600087815260200190815260200160002083815481106108dc576108db614156565b5b906000526020600020906003020160010154815260200160056000878152602001908152602001600020838154811061091857610917614156565b5b906000526020600020906003020160020160009054906101000a900460ff16600781111561094957610948613bae565b5b815250925050506109a0565b6040518060600160405280600073ffffffffffffffffffffffffffffffffffffffff168152602001600081526020016000600781111561099857610997613bae565b5b815250925050505b919050565b6000600282815481106109bb576109ba614156565b5b90600052602060002090600902019050600060068111156109df576109de613bae565b5b8160080160019054906101000a900460ff166006811115610a0357610a02613bae565b5b14610a43576040517f08c379a0000000000000000000000000000000000000000000000000000000008152600401610a3a90614208565b60405180910390fd5b600080600090505b600560008460000154815260200190815260200160002080549050811015610b16573373ffffffffffffffffffffffffffffffffffffffff1660056000856000015481526020019081526020016000208281548110610aad57610aac614156565b5b906000526020600020906003020160000160009054906101000a900473ffffffffffffffffffffffffffffffffffffffff1673ffffffffffffffffffffffffffffffffffffffff1603610b035760019150610b16565b8080610b0e906142e9565b915050610a4b565b81610b56576040517f08c379a0000000000000000000000000000000000000000000000000000000008152600401610b4d9061437d565b60405180910390fd5b600160056000856000015481526020019081526020016000208281548110610b8157610b80614156565b5b906000526020600020906003020160020160006101000a81548160ff02191690836007811115610bb457610bb3613bae565b5b021790555050505050565b606060056000838152602001908152602001600020805480602002602001604051908101604052809291908181526020016000905b82821015610cc157838290600052602060002090600302016040518060600160405290816000820160009054906101000a900473ffffffffffffffffffffffffffffffffffffffff1673ffffffffffffffffffffffffffffffffffffffff1673ffffffffffffffffffffffffffffffffffffffff168152602001600182015481526020016002820160009054906101000a900460ff166007811115610c9c57610c9b613bae565b5b6007811115610cae57610cad613bae565b5b8152505081526020019060010190610bf4565b505050509050919050565b60606000600460008473ffffffffffffffffffffffffffffffffffffffff1673ffffffffffffffffffffffffffffffffffffffff168152602001908152602001600020805480602002602001604051908101604052809291908181526020018280548015610d5957602002820191906000526020600020905b815481526020019060010190808311610d45575b505050505090506000815167ffffffffffffffff811115610d7d57610d7c61439d565b5b604051908082528060200260200182016040528015610db657816020015b610da3613a54565b815260200190600190039081610d9b5790505b50905060005b8251811015610f7c576002838281518110610dda57610dd9614156565b5b602002602001015181548110610df357610df2614156565b5b906000526020600020906009020160405180610140016040529081600082015481526020016001820160009054906101000a900473ffffffffffffffffffffffffffffffffffffffff1673ffffffffffffffffffffffffffffffffffffffff1673ffffffffffffffffffffffffffffffffffffffff16815260200160028201548152602001600382015481526020016004820160009054906101000a900473ffffffffffffffffffffffffffffffffffffffff1673ffffffffffffffffffffffffffffffffffffffff1673ffffffffffffffffffffffffffffffffffffffff1681526020016005820154815260200160068201548152602001600782015481526020016008820160009054906101000a900460ff161515151581526020016008820160019054906101000a900460ff166006811115610f3557610f34613bae565b5b6006811115610f4757610f46613bae565b5b81525050828281518110610f5e57610f5d614156565b5b60200260200101819052508080610f74906142e9565b915050610dbc565b508092505050919050565b60008054906101000a900473ffffffffffffffffffffffffffffffffffffffff1673ffffffffffffffffffffffffffffffffffffffff1663fbb62fe7836040518263ffffffff1660e01b8152600401610fe0919061403e565b600060405180830381865afa158015610ffd573d6000803e3d6000fd5b505050506040513d6000823e3d601f19601f8201168201806040525081019061102691906146b1565b6080015173ffffffffffffffffffffffffffffffffffffffff163373ffffffffffffffffffffffffffffffffffffffff1614611097576040517f08c379a000000000000000000000000000000000000000000000000000000000815260040161108e9061476c565b60405180910390fd5b6000600660008060009054906101000a900473ffffffffffffffffffffffffffffffffffffffff1673ffffffffffffffffffffffffffffffffffffffff1663fbb62fe7866040518263ffffffff1660e01b81526004016110f7919061403e565b600060405180830381865afa158015611114573d6000803e3d6000fd5b505050506040513d6000823e3d601f19601f8201168201806040525081019061113d91906146b1565b6020015181526020019081526020016000209050806002805490509080600181540180825580915050600190039060005260206000200160009091909190915055600060405180610140016040528060028054905081526020013373ffffffffffffffffffffffffffffffffffffffff168152602001848152602001858152602001600073ffffffffffffffffffffffffffffffffffffffff1681526020016000815260200160008152602001600081526020016000151581526020016000600681111561120e5761120d613bae565b5b815250905060028190806001815401808255809150506001900390600052602060002090600902016000909190919091506000820151816000015560208201518160010160006101000a81548173ffffffffffffffffffffffffffffffffffffffff021916908373ffffffffffffffffffffffffffffffffffffffff160217905550604082015181600201556060820151816003015560808201518160040160006101000a81548173ffffffffffffffffffffffffffffffffffffffff021916908373ffffffffffffffffffffffffffffffffffffffff16021790555060a0820151816005015560c0820151816006015560e082015181600701556101008201518160080160006101000a81548160ff0219169083151502179055506101208201518160080160016101000a81548160ff0219169083600681111561135657611355613bae565b5b02179055505050600360003373ffffffffffffffffffffffffffffffffffffffff1673ffffffffffffffffffffffffffffffffffffffff1681526020019081526020016000208160000151908060018154018082558091505060019003906000526020600020016000909190919091505560008054906101000a900473ffffffffffffffffffffffffffffffffffffffff1673ffffffffffffffffffffffffffffffffffffffff16639bcff9ba85336040518363ffffffff1660e01b815260040161142292919061479b565b600060405180830381600087803b15801561143c57600080fd5b505af1158015611450573d6000803e3d6000fd5b50505050833373ffffffffffffffffffffffffffffffffffffffff167f2e3f92a5fda60f34892d89d5b35c9d5fced8bf480fa1c3c7acf0504950f4f164836000015160405161149f919061403e565b60405180910390a350505050565b6000600283815481106114c3576114c2614156565b5b90600052602060002090600902019050600081600301540361151a576040517f08c379a000000000000000000000000000000000000000000000000000000000815260040161151190614810565b60405180910390fd5b6000600681111561152e5761152d613bae565b5b8160080160019054906101000a900460ff16600681111561155257611551613bae565b5b14611592576040517f08c379a00000000000000000000000000000000000000000000000000000000081526004016115899061487c565b60405180910390fd5b600080600090505b600560008460000154815260200190815260200160002080549050811015611665573373ffffffffffffffffffffffffffffffffffffffff16600560008560000154815260200190815260200160002082815481106115fc576115fb614156565b5b906000526020600020906003020160000160009054906101000a900473ffffffffffffffffffffffffffffffffffffffff1673ffffffffffffffffffffffffffffffffffffffff16036116525760019150611665565b808061165d906142e9565b91505061159a565b816116a5576040517f08c379a000000000000000000000000000000000000000000000000000000000815260040161169c9061490e565b60405180910390fd5b600060078111156116b9576116b8613bae565b5b600560008560000154815260200190815260200160002082815481106116e2576116e1614156565b5b906000526020600020906003020160020160009054906101000a900460ff16600781111561171357611712613bae565b5b03611753576040517f08c379a000000000000000000000000000000000000000000000000000000000815260040161174a906149a0565b60405180910390fd5b6002600781111561176757611766613bae565b5b600560008560000154815260200190815260200160002082815481106117905761178f614156565b5b906000526020600020906003020160020160009054906101000a900460ff1660078111156117c1576117c0613bae565b5b03611801576040517f08c379a00000000000000000000000000000000000000000000000000000000081526004016117f8906149a0565b60405180910390fd5b6006600781111561181557611814613bae565b5b6005600085600001548152602001908152602001600020828154811061183e5761183d614156565b5b906000526020600020906003020160020160009054906101000a900460ff16600781111561186f5761186e613bae565b5b036118af576040517f08c379a00000000000000000000000000000000000000000000000000000000081526004016118a6906149a0565b60405180910390fd5b6006600560008560000154815260200190815260200160002082815481106118da576118d9614156565b5b906000526020600020906003020160020160006101000a81548160ff0219169083600781111561190d5761190c613bae565b5b0217905550836005600085600001548152602001908152602001600020828154811061193c5761193b614156565b5b9060005260206000209060030201600101819055507fc8563b268bdb427da3059ff194f3e6f4c1da1ed37cd2ed6b90993415398f6bda853386604051611984939291906149c0565b60405180910390a15050505050565b6000600283815481106119a9576119a8614156565b5b906000526020600020906009020190506000816003015403611a00576040517f08c379a00000000000000000000000000000000000000000000000000000000081526004016119f790614810565b60405180910390fd5b60006006811115611a1457611a13613bae565b5b8160080160019054906101000a900460ff166006811115611a3857611a37613bae565b5b14611a78576040517f08c379a0000000000000000000000000000000000000000000000000000000008152600401611a6f90614a69565b60405180910390fd5b600560008260000154815260200190815260200160002060405180606001604052803373ffffffffffffffffffffffffffffffffffffffff16815260200184815260200160006007811115611ad057611acf613bae565b5b815250908060018154018082558091505060019003906000526020600020906003020160009091909190915060008201518160000160006101000a81548173ffffffffffffffffffffffffffffffffffffffff021916908373ffffffffffffffffffffffffffffffffffffffff1602179055506020820151816001015560408201518160020160006101000a81548160ff02191690836007811115611b7857611b77613bae565b5b02179055505050600460003373ffffffffffffffffffffffffffffffffffffffff1673ffffffffffffffffffffffffffffffffffffffff168152602001908152602001600020816000015490806001815401808255809150506001900390600052602060002001600090919091909150557fc8563b268bdb427da3059ff194f3e6f4c1da1ed37cd2ed6b90993415398f6bda833384604051611c1c939291906149c0565b60405180910390a1505050565b600060028281548110611c3f57611c3e614156565b5b906000526020600020906009020190508060040160009054906101000a900473ffffffffffffffffffffffffffffffffffffffff1673ffffffffffffffffffffffffffffffffffffffff163373ffffffffffffffffffffffffffffffffffffffff1614611ce1576040517f08c379a0000000000000000000000000000000000000000000000000000000008152600401611cd890614afb565b60405180910390fd5b80600501543414611d27576040517f08c379a0000000000000000000000000000000000000000000000000000000008152600401611d1e90614b8d565b60405180910390fd5b8060070154421115611d6e576040517f08c379a0000000000000000000000000000000000000000000000000000000008152600401611d6590614bf9565b60405180910390fd5b600080600090505b600560008460000154815260200190815260200160002080549050811015611e41573373ffffffffffffffffffffffffffffffffffffffff1660056000856000015481526020019081526020016000208281548110611dd857611dd7614156565b5b906000526020600020906003020160000160009054906101000a900473ffffffffffffffffffffffffffffffffffffffff1673ffffffffffffffffffffffffffffffffffffffff1603611e2e5760019150611e41565b8080611e39906142e9565b915050611d76565b81611e81576040517f08c379a0000000000000000000000000000000000000000000000000000000008152600401611e789061490e565b60405180910390fd5b8260010160009054906101000a900473ffffffffffffffffffffffffffffffffffffffff1673ffffffffffffffffffffffffffffffffffffffff166108fc349081150290604051600060405180830381858888f19350505050158015611eeb573d6000803e3d6000fd5b50600160009054906101000a900473ffffffffffffffffffffffffffffffffffffffff1673ffffffffffffffffffffffffffffffffffffffff166329507f738460030154336040518363ffffffff1660e01b8152600401611f4d92919061479b565b600060405180830381600087803b158015611f6757600080fd5b505af1158015611f7b573d6000803e3d6000fd5b50505050600760056000856000015481526020019081526020016000208281548110611faa57611fa9614156565b5b906000526020600020906003020160020160006101000a81548160ff02191690836007811115611fdd57611fdc613bae565b5b021790555060008060009054906101000a900473ffffffffffffffffffffffffffffffffffffffff1673ffffffffffffffffffffffffffffffffffffffff1663fbb62fe785600301546040518263ffffffff1660e01b8152600401612042919061403e565b600060405180830381865afa15801561205f573d6000803e3d6000fd5b505050506040513d6000823e3d601f19601f8201168201806040525081019061208891906146b1565b6020015190506000600660008381526020019081526020016000209050600092505b808054905083101561216c5784600001548184815481106120ce576120cd614156565b5b9060005260206000200154036121595780600182805490506120f09190614c19565b8154811061210157612100614156565b5b906000526020600020015481848154811061211f5761211e614156565b5b90600052602060002001819055508080548061213e5761213d614c4d565b5b6001900381819060005260206000200160009055905561216c565b8280612164906142e9565b9350506120aa565b60038560080160016101000a81548160ff0219169083600681111561219457612193613bae565b5b0217905550505050505050565b6000670de0b6b3a7640000826121b79190614c7c565b9050919050565b6000600284815481106121d4576121d3614156565b5b90600052602060002090600902019050600081600301540361222b576040517f08c379a000000000000000000000000000000000000000000000000000000000815260040161222290614810565b60405180910390fd5b6000600681111561223f5761223e613bae565b5b8160080160019054906101000a900460ff16600681111561226357612262613bae565b5b146122a3576040517f08c379a000000000000000000000000000000000000000000000000000000000815260040161229a9061487c565b60405180910390fd5b60008054906101000a900473ffffffffffffffffffffffffffffffffffffffff1673ffffffffffffffffffffffffffffffffffffffff1663fbb62fe782600301546040518263ffffffff1660e01b8152600401612300919061403e565b600060405180830381865afa15801561231d573d6000803e3d6000fd5b505050506040513d6000823e3d601f19601f8201168201806040525081019061234691906146b1565b6080015173ffffffffffffffffffffffffffffffffffffffff163373ffffffffffffffffffffffffffffffffffffffff16146123b7576040517f08c379a00000000000000000000000000000000000000000000000000000000081526004016123ae90614d30565b60405180910390fd5b600060056000836000015481526020019081526020016000208054905011612414576040517f08c379a000000000000000000000000000000000000000000000000000000000815260040161240b90614d9c565b60405180910390fd5b600080600090505b6005600084600001548152602001908152602001600020805490508110156124e7578473ffffffffffffffffffffffffffffffffffffffff166005600085600001548152602001908152602001600020828154811061247e5761247d614156565b5b906000526020600020906003020160000160009054906101000a900473ffffffffffffffffffffffffffffffffffffffff1673ffffffffffffffffffffffffffffffffffffffff16036124d457600191506124e7565b80806124df906142e9565b91505061241c565b81612527576040517f08c379a000000000000000000000000000000000000000000000000000000000815260040161251e90614e2e565b60405180910390fd5b600560008460000154815260200190815260200160002081815481106125505761254f614156565b5b90600052602060002090600302016001015484146125a3576040517f08c379a000000000000000000000000000000000000000000000000000000000815260040161259a90614ec0565b60405180910390fd5b848360040160006101000a81548173ffffffffffffffffffffffffffffffffffffffff021916908373ffffffffffffffffffffffffffffffffffffffff16021790555083836005018190555042836006018190555061012c426126069190614ee0565b836007018190555060018360080160016101000a81548160ff0219169083600681111561263657612635613bae565b5b021790555060026005600085600001548152602001908152602001600020828154811061266657612665614156565b5b906000526020600020906003020160020160006101000a81548160ff0219169083600781111561269957612698613bae565b5b02179055507f36a90be4cc85a10604516d70cdf8d7fa5f0b470e9dc0f6ba6de9a74cae9546f386868686600701546040516126d79493929190614f14565b60405180910390a1505050505050565b606060006006600084815260200190815260200160002080548060200260200160405190810160405280929190818152602001828054801561274857602002820191906000526020600020905b815481526020019060010190808311612734575b505050505090506000815167ffffffffffffffff81111561276c5761276b61439d565b5b6040519080825280602002602001820160405280156127a557816020015b612792613a54565b81526020019060019003908161278a5790505b50905060005b825181101561296b5760028382815181106127c9576127c8614156565b5b6020026020010151815481106127e2576127e1614156565b5b906000526020600020906009020160405180610140016040529081600082015481526020016001820160009054906101000a900473ffffffffffffffffffffffffffffffffffffffff1673ffffffffffffffffffffffffffffffffffffffff1673ffffffffffffffffffffffffffffffffffffffff16815260200160028201548152602001600382015481526020016004820160009054906101000a900473ffffffffffffffffffffffffffffffffffffffff1673ffffffffffffffffffffffffffffffffffffffff1673ffffffffffffffffffffffffffffffffffffffff1681526020016005820154815260200160068201548152602001600782015481526020016008820160009054906101000a900460ff161515151581526020016008820160019054906101000a900460ff16600681111561292457612923613bae565b5b600681111561293657612935613bae565b5b8152505082828151811061294d5761294c614156565b5b60200260200101819052508080612963906142e9565b9150506127ab565b508092505050919050565b6000806002838154811061298d5761298c614156565b5b906000526020600020906009020190503373ffffffffffffffffffffffffffffffffffffffff168160010160009054906101000a900473ffffffffffffffffffffffffffffffffffffffff1673ffffffffffffffffffffffffffffffffffffffff1614612a2f576040517f08c379a0000000000000000000000000000000000000000000000000000000008152600401612a2690614fcb565b60405180910390fd5b8060080160009054906101000a900460ff1615612a81576040517f08c379a0000000000000000000000000000000000000000000000000000000008152600401612a7890615037565b60405180910390fd5b60036006811115612a9557612a94613bae565b5b8160080160019054906101000a900460ff166006811115612ab957612ab8613bae565b5b03612af9576040517f08c379a0000000000000000000000000000000000000000000000000000000008152600401612af0906150c9565b60405180910390fd5b60026006811115612b0d57612b0c613bae565b5b8160080160019054906101000a900460ff166006811115612b3157612b30613bae565b5b03612b71576040517f08c379a0000000000000000000000000000000000000000000000000000000008152600401612b6890615135565b60405180910390fd5b60016006811115612b8557612b84613bae565b5b8160080160019054906101000a900460ff166006811115612ba957612ba8613bae565b5b03612be9576040517f08c379a0000000000000000000000000000000000000000000000000000000008152600401612be0906151ed565b60405180910390fd5b60028160080160016101000a81548160ff02191690836006811115612c1157612c10613bae565b5b021790555060008160040160006101000a81548173ffffffffffffffffffffffffffffffffffffffff021916908373ffffffffffffffffffffffffffffffffffffffff16021790555060008160050181905550600081600601819055506000816007018190555060008160080160006101000a81548160ff02191690831515021790555060008054906101000a900473ffffffffffffffffffffffffffffffffffffffff1673ffffffffffffffffffffffffffffffffffffffff16637b5484a88260030154336040518363ffffffff1660e01b8152600401612cf492919061479b565b600060405180830381600087803b158015612d0e57600080fd5b505af1158015612d22573d6000803e3d6000fd5b505050506001915050919050565b60046020528160005260406000208181548110612d4c57600080fd5b90600052602060002001600091509150505481565b600060028281548110612d7757612d76614156565b5b906000526020600020906009020190503373ffffffffffffffffffffffffffffffffffffffff168160010160009054906101000a900473ffffffffffffffffffffffffffffffffffffffff1673ffffffffffffffffffffffffffffffffffffffff1614612e19576040517f08c379a0000000000000000000000000000000000000000000000000000000008152600401612e109061527f565b60405180910390fd5b60006006811115612e2d57612e2c613bae565b5b8160080160019054906101000a900460ff166006811115612e5157612e50613bae565b5b03612e91576040517f08c379a0000000000000000000000000000000000000000000000000000000008152600401612e88906152eb565b60405180910390fd5b60026006811115612ea557612ea4613bae565b5b8160080160019054906101000a900460ff166006811115612ec957612ec8613bae565b5b03612f09576040517f08c379a0000000000000000000000000000000000000000000000000000000008152600401612f009061537d565b60405180910390fd5b60016006811115612f1d57612f1c613bae565b5b8160080160019054906101000a900460ff166006811115612f4157612f40613bae565b5b03612f81576040517f08c379a0000000000000000000000000000000000000000000000000000000008152600401612f789061537d565b60405180910390fd5b60036006811115612f9557612f94613bae565b5b8160080160019054906101000a900460ff166006811115612fb957612fb8613bae565b5b03612ff9576040517f08c379a0000000000000000000000000000000000000000000000000000000008152600401612ff09061540f565b60405180910390fd5b60008160080160016101000a81548160ff0219169083600681111561302157613020613bae565b5b021790555060008160040160006101000a81548173ffffffffffffffffffffffffffffffffffffffff021916908373ffffffffffffffffffffffffffffffffffffffff16021790555060008160050181905550600081600601819055506000816007018190555060008160080160006101000a81548160ff0219169083151502179055505050565b6000600283815481106130bf576130be614156565b5b906000526020600020906009020190503373ffffffffffffffffffffffffffffffffffffffff168160010160009054906101000a900473ffffffffffffffffffffffffffffffffffffffff1673ffffffffffffffffffffffffffffffffffffffff1614613161576040517f08c379a00000000000000000000000000000000000000000000000000000000081526004016131589061547b565b60405180910390fd5b6002600681111561317557613174613bae565b5b8160080160019054906101000a900460ff16600681111561319957613198613bae565b5b036131d9576040517f08c379a00000000000000000000000000000000000000000000000000000000081526004016131d09061550d565b60405180910390fd5b600360068111156131ed576131ec613bae565b5b8160080160019054906101000a900460ff16600681111561321157613210613bae565b5b03613251576040517f08c379a00000000000000000000000000000000000000000000000000000000081526004016132489061559f565b60405180910390fd5b600080600090505b600560008460000154815260200190815260200160002080549050811015613324578373ffffffffffffffffffffffffffffffffffffffff16600560008560000154815260200190815260200160002082815481106132bb576132ba614156565b5b906000526020600020906003020160000160009054906101000a900473ffffffffffffffffffffffffffffffffffffffff1673ffffffffffffffffffffffffffffffffffffffff16036133115760019150613324565b808061331c906142e9565b915050613259565b81613364576040517f08c379a000000000000000000000000000000000000000000000000000000000815260040161335b90615631565b60405180910390fd5b60036005600085600001548152602001908152602001600020828154811061338f5761338e614156565b5b906000526020600020906003020160020160006101000a81548160ff021916908360078111156133c2576133c1613bae565b5b02179055505050505050565b60606000600360008473ffffffffffffffffffffffffffffffffffffffff1673ffffffffffffffffffffffffffffffffffffffff16815260200190815260200160002080548060200260200160405190810160405280929190818152602001828054801561345b57602002820191906000526020600020905b815481526020019060010190808311613447575b505050505090506000815167ffffffffffffffff81111561347f5761347e61439d565b5b6040519080825280602002602001820160405280156134b857816020015b6134a5613a54565b81526020019060019003908161349d5790505b50905060005b825181101561367e5760028382815181106134dc576134db614156565b5b6020026020010151815481106134f5576134f4614156565b5b906000526020600020906009020160405180610140016040529081600082015481526020016001820160009054906101000a900473ffffffffffffffffffffffffffffffffffffffff1673ffffffffffffffffffffffffffffffffffffffff1673ffffffffffffffffffffffffffffffffffffffff16815260200160028201548152602001600382015481526020016004820160009054906101000a900473ffffffffffffffffffffffffffffffffffffffff1673ffffffffffffffffffffffffffffffffffffffff1673ffffffffffffffffffffffffffffffffffffffff1681526020016005820154815260200160068201548152602001600782015481526020016008820160009054906101000a900460ff161515151581526020016008820160019054906101000a900460ff16600681111561363757613636613bae565b5b600681111561364957613648613bae565b5b815250508282815181106136605761365f614156565b5b60200260200101819052508080613676906142e9565b9150506134be565b508092505050919050565b60006002828154811061369f5761369e614156565b5b90600052602060002090600902019050600160068111156136c3576136c2613bae565b5b8160080160019054906101000a900460ff1660068111156136e7576136e6613bae565b5b148061372857506004600681111561370257613701613bae565b5b8160080160019054906101000a900460ff16600681111561372657613725613bae565b5b145b613767576040517f08c379a000000000000000000000000000000000000000000000000000000000815260040161375e90614208565b60405180910390fd5b3373ffffffffffffffffffffffffffffffffffffffff168160010160009054906101000a900473ffffffffffffffffffffffffffffffffffffffff1673ffffffffffffffffffffffffffffffffffffffff16146137f9576040517f08c379a00000000000000000000000000000000000000000000000000000000081526004016137f0906156c3565b60405180910390fd5b60008160040160009054906101000a900473ffffffffffffffffffffffffffffffffffffffff16905060058260080160016101000a81548160ff0219169083600681111561384a57613849613bae565b5b021790555060008260040160006101000a81548173ffffffffffffffffffffffffffffffffffffffff021916908373ffffffffffffffffffffffffffffffffffffffff16021790555060008260050181905550600082600601819055506000826007018190555060008260080160006101000a81548160ff021916908315150217905550600080600090505b6005600085600001548152602001908152602001600020805490508110156139a1578273ffffffffffffffffffffffffffffffffffffffff166005600086600001548152602001908152602001600020828154811061393857613937614156565b5b906000526020600020906003020160000160009054906101000a900473ffffffffffffffffffffffffffffffffffffffff1673ffffffffffffffffffffffffffffffffffffffff160361398e57600191506139a1565b8080613999906142e9565b9150506138d6565b6004600560008660000154815260200190815260200160002082815481106139cc576139cb614156565b5b906000526020600020906003020160020160006101000a81548160ff021916908360078111156139ff576139fe613bae565b5b02179055505050505050565b6040518060600160405280600073ffffffffffffffffffffffffffffffffffffffff1681526020016000815260200160006007811115613a4e57613a4d613bae565b5b81525090565b60405180610140016040528060008152602001600073ffffffffffffffffffffffffffffffffffffffff1681526020016000815260200160008152602001600073ffffffffffffffffffffffffffffffffffffffff16815260200160008152602001600081526020016000815260200160001515815260200160006006811115613ae157613ae0613bae565b5b81525090565b6000604051905090565b600080fd5b600080fd5b6000819050919050565b613b0e81613afb565b8114613b1957600080fd5b50565b600081359050613b2b81613b05565b92915050565b600060208284031215613b4757613b46613af1565b5b6000613b5584828501613b1c565b91505092915050565b600073ffffffffffffffffffffffffffffffffffffffff82169050919050565b6000613b8982613b5e565b9050919050565b613b9981613b7e565b82525050565b613ba881613afb565b82525050565b7f4e487b7100000000000000000000000000000000000000000000000000000000600052602160045260246000fd5b60088110613bee57613bed613bae565b5b50565b6000819050613bff82613bdd565b919050565b6000613c0f82613bf1565b9050919050565b613c1f81613c04565b82525050565b606082016000820151613c3b6000850182613b90565b506020820151613c4e6020850182613b9f565b506040820151613c616040850182613c16565b50505050565b6000606082019050613c7c6000830184613c25565b92915050565b600081519050919050565b600082825260208201905092915050565b6000819050602082019050919050565b606082016000820151613cc46000850182613b90565b506020820151613cd76020850182613b9f565b506040820151613cea6040850182613c16565b50505050565b6000613cfc8383613cae565b60608301905092915050565b6000602082019050919050565b6000613d2082613c82565b613d2a8185613c8d565b9350613d3583613c9e565b8060005b83811015613d66578151613d4d8882613cf0565b9750613d5883613d08565b925050600181019050613d39565b5085935050505092915050565b60006020820190508181036000830152613d8d8184613d15565b905092915050565b613d9e81613b7e565b8114613da957600080fd5b50565b600081359050613dbb81613d95565b92915050565b600060208284031215613dd757613dd6613af1565b5b6000613de584828501613dac565b91505092915050565b600081519050919050565b600082825260208201905092915050565b6000819050602082019050919050565b60008115159050919050565b613e2f81613e1a565b82525050565b60078110613e4657613e45613bae565b5b50565b6000819050613e5782613e35565b919050565b6000613e6782613e49565b9050919050565b613e7781613e5c565b82525050565b61014082016000820151613e946000850182613b9f565b506020820151613ea76020850182613b90565b506040820151613eba6040850182613b9f565b506060820151613ecd6060850182613b9f565b506080820151613ee06080850182613b90565b5060a0820151613ef360a0850182613b9f565b5060c0820151613f0660c0850182613b9f565b5060e0820151613f1960e0850182613b9f565b50610100820151613f2e610100850182613e26565b50610120820151613f43610120850182613e6e565b50505050565b6000613f558383613e7d565b6101408301905092915050565b6000602082019050919050565b6000613f7a82613dee565b613f848185613df9565b9350613f8f83613e0a565b8060005b83811015613fc0578151613fa78882613f49565b9750613fb283613f62565b925050600181019050613f93565b5085935050505092915050565b60006020820190508181036000830152613fe78184613f6f565b905092915050565b6000806040838503121561400657614005613af1565b5b600061401485828601613b1c565b925050602061402585828601613b1c565b9150509250929050565b61403881613afb565b82525050565b6000602082019050614053600083018461402f565b92915050565b60008060006060848603121561407257614071613af1565b5b600061408086828701613b1c565b935050602061409186828701613dac565b92505060406140a286828701613b1c565b9150509250925092565b6140b581613e1a565b82525050565b60006020820190506140d060008301846140ac565b92915050565b600080604083850312156140ed576140ec613af1565b5b60006140fb85828601613dac565b925050602061410c85828601613b1c565b9150509250929050565b6000806040838503121561412d5761412c613af1565b5b600061413b85828601613b1c565b925050602061414c85828601613dac565b9150509250929050565b7f4e487b7100000000000000000000000000000000000000000000000000000000600052603260045260246000fd5b600082825260208201905092915050565b7f53616c6520737461746520646f6573206e6f7420616c6c6f772063616e63656c60008201527f6c6174696f6e0000000000000000000000000000000000000000000000000000602082015250565b60006141f2602683614185565b91506141fd82614196565b604082019050919050565b60006020820190508181036000830152614221816141e5565b9050919050565b7f4e6f7420417574686f72697a656420746f2052656a656374204163636570746160008201527f6e63652052657175657374206f662053656c6c65720000000000000000000000602082015250565b6000614284603583614185565b915061428f82614228565b604082019050919050565b600060208201905081810360008301526142b381614277565b9050919050565b7f4e487b7100000000000000000000000000000000000000000000000000000000600052601160045260246000fd5b60006142f482613afb565b91507fffffffffffffffffffffffffffffffffffffffffffffffffffffffffffffffff8203614326576143256142ba565b5b600182019050919050565b7f4f6e6c7920526571756573746564204275796572732063616e2063616e63656c600082015250565b6000614367602083614185565b915061437282614331565b602082019050919050565b600060208201905081810360008301526143968161435a565b9050919050565b7f4e487b7100000000000000000000000000000000000000000000000000000000600052604160045260246000fd5b600080fd5b6000601f19601f8301169050919050565b6143eb826143d1565b810181811067ffffffffffffffff8211171561440a5761440961439d565b5b80604052505050565b600061441d613ae7565b905061442982826143e2565b919050565b600080fd5b60008151905061444281613b05565b92915050565b60008151905061445781613d95565b92915050565b600080fd5b600080fd5b600067ffffffffffffffff8211156144825761448161439d565b5b61448b826143d1565b9050602081019050919050565b60005b838110156144b657808201518184015260208101905061449b565b60008484015250505050565b60006144d56144d084614467565b614413565b9050828152602081018484840111156144f1576144f0614462565b5b6144fc848285614498565b509392505050565b600082601f8301126145195761451861445d565b5b81516145298482602086016144c2565b91505092915050565b6006811061453f57600080fd5b50565b60008151905061455181614532565b92915050565b6000610180828403121561456e5761456d6143cc565b5b614579610180614413565b9050600061458984828501614433565b600083015250602061459d84828501614433565b60208301525060406145b184828501614433565b60408301525060606145c584828501614433565b60608301525060806145d984828501614448565b60808301525060a06145ed84828501614433565b60a08301525060c061460184828501614433565b60c08301525060e061461584828501614433565b60e08301525061010061462a84828501614448565b6101008301525061012082015167ffffffffffffffff8111156146505761464f61442e565b5b61465c84828501614504565b6101208301525061014082015167ffffffffffffffff8111156146825761468161442e565b5b61468e84828501614504565b610140830152506101606146a484828501614542565b6101608301525092915050565b6000602082840312156146c7576146c6613af1565b5b600082015167ffffffffffffffff8111156146e5576146e4613af6565b5b6146f184828501614557565b91505092915050565b7f4f6e6c7920746865206f776e65722063616e20707574207468652070726f706560008201527f727479206f6e2073616c652e0000000000000000000000000000000000000000602082015250565b6000614756602c83614185565b9150614761826146fa565b604082019050919050565b6000602082019050818103600083015261478581614749565b9050919050565b61479581613b7e565b82525050565b60006040820190506147b0600083018561402f565b6147bd602083018461478c565b9392505050565b7f53616c6520646f6573206e6f7420657869737400000000000000000000000000600082015250565b60006147fa601383614185565b9150614805826147c4565b602082019050919050565b60006020820190508181036000830152614829816147ed565b9050919050565b7f53616c65206973204e6f74204163746976650000000000000000000000000000600082015250565b6000614866601283614185565b915061487182614830565b602082019050919050565b6000602082019050818103600083015261489581614859565b9050919050565b7f4275796572204e6f7420666f756e6420696e20526571756573746564204c697360008201527f7400000000000000000000000000000000000000000000000000000000000000602082015250565b60006148f8602183614185565b91506149038261489c565b604082019050919050565b60006020820190508181036000830152614927816148eb565b9050919050565b7f5374617465204e6f7420416c6c6f77656420746f2052652d73656e742050757260008201527f6368617365205265717565737400000000000000000000000000000000000000602082015250565b600061498a602d83614185565b91506149958261492e565b604082019050919050565b600060208201905081810360008301526149b98161497d565b9050919050565b60006060820190506149d5600083018661402f565b6149e2602083018561478c565b6149ef604083018461402f565b949350505050565b7f50726f7065727479204e6f7420696e2041637469766520537461746520746f2060008201527f5075726368617365000000000000000000000000000000000000000000000000602082015250565b6000614a53602883614185565b9150614a5e826149f7565b604082019050919050565b60006020820190508181036000830152614a8281614a46565b9050919050565b7f4f6e6c792061636365707465642062757965722063616e20636f6d706c65746560008201527f207468652073616c650000000000000000000000000000000000000000000000602082015250565b6000614ae5602983614185565b9150614af082614a89565b604082019050919050565b60006020820190508181036000830152614b1481614ad8565b9050919050565b7f5061796d656e7420616d6f756e74206d75737420626520657175616c20746f2060008201527f6163636570746564207072696365000000000000000000000000000000000000602082015250565b6000614b77602e83614185565b9150614b8282614b1b565b604082019050919050565b60006020820190508181036000830152614ba681614b6a565b9050919050565b7f5061796d656e7420646561646c696e6520686173207061737365640000000000600082015250565b6000614be3601b83614185565b9150614bee82614bad565b602082019050919050565b60006020820190508181036000830152614c1281614bd6565b9050919050565b6000614c2482613afb565b9150614c2f83613afb565b9250828203905081811115614c4757614c466142ba565b5b92915050565b7f4e487b7100000000000000000000000000000000000000000000000000000000600052603160045260246000fd5b6000614c8782613afb565b9150614c9283613afb565b9250828202614ca081613afb565b91508282048414831517614cb757614cb66142ba565b5b5092915050565b7f4f6e6c7920746865206f776e65722063616e206163636570742074686520707560008201527f72636861736520726571756573742e0000000000000000000000000000000000602082015250565b6000614d1a602f83614185565b9150614d2582614cbe565b604082019050919050565b60006020820190508181036000830152614d4981614d0d565b9050919050565b7f4e6f20627579657220726571756573747320666f756e64000000000000000000600082015250565b6000614d86601783614185565b9150614d9182614d50565b602082019050919050565b60006020820190508181036000830152614db581614d79565b9050919050565b7f4275796572206e6f7420666f756e6420696e207265717565737465642075736560008201527f7220617272617900000000000000000000000000000000000000000000000000602082015250565b6000614e18602783614185565b9150614e2382614dbc565b604082019050919050565b60006020820190508181036000830152614e4781614e0b565b9050919050565b7f50726963652073656e742062792073656c6c6572206e6f7420657175616c207460008201527f6f207072696365206f6666657265642062792062757965720000000000000000602082015250565b6000614eaa603883614185565b9150614eb582614e4e565b604082019050919050565b60006020820190508181036000830152614ed981614e9d565b9050919050565b6000614eeb82613afb565b9150614ef683613afb565b9250828201905080821115614f0e57614f0d6142ba565b5b92915050565b6000608082019050614f29600083018761402f565b614f36602083018661478c565b614f43604083018561402f565b614f50606083018461402f565b95945050505050565b7f4f6e6c792070726f7065727479206f776e65722063616e2063616e63656c207360008201527f616c650000000000000000000000000000000000000000000000000000000000602082015250565b6000614fb5602383614185565b9150614fc082614f59565b604082019050919050565b60006020820190508181036000830152614fe481614fa8565b9050919050565b7f5061796d656e742068617320616c7265616479206265656e206d616465000000600082015250565b6000615021601d83614185565b915061502c82614feb565b602082019050919050565b6000602082019050818103600083015261505081615014565b9050919050565b7f5375636365737365642053616c652043616e27742062652043616e63656c656460008201527f2e00000000000000000000000000000000000000000000000000000000000000602082015250565b60006150b3602183614185565b91506150be82615057565b604082019050919050565b600060208201905081810360008301526150e2816150a6565b9050919050565b7f53616c6520697320416c72656164792043616e63656c6c656400000000000000600082015250565b600061511f601983614185565b915061512a826150e9565b602082019050919050565b6000602082019050818103600083015261514e81615112565b9050919050565b7f416363657074656420546f2042757965722c43616e27742043616e63656c205360008201527f616c652e506c656173652043616e63656c20416363657074616e63204669727360208201527f7400000000000000000000000000000000000000000000000000000000000000604082015250565b60006151d7604183614185565b91506151e282615155565b606082019050919050565b60006020820190508181036000830152615206816151ca565b9050919050565b7f4f6e6c792070726f7065727479206f776e65722063616e2052652d616374697660008201527f6174650000000000000000000000000000000000000000000000000000000000602082015250565b6000615269602383614185565b91506152748261520d565b604082019050919050565b600060208201905081810360008301526152988161525c565b9050919050565b7f53616c6520697320416c726561647920696e2041637469766520537461746500600082015250565b60006152d5601f83614185565b91506152e08261529f565b602082019050919050565b60006020820190508181036000830152615304816152c8565b9050919050565b7f436c6f7365642053616c652063616e277420626520726561637469766174656460008201527f2e506c6561736520437265617465204e65772053616c65000000000000000000602082015250565b6000615367603783614185565b91506153728261530b565b604082019050919050565b600060208201905081810360008301526153968161535a565b9050919050565b7f5375636365737365642053616c652063616e277420626520726561637469766160008201527f7465642e00000000000000000000000000000000000000000000000000000000602082015250565b60006153f9602483614185565b91506154048261539d565b604082019050919050565b60006020820190508181036000830152615428816153ec565b9050919050565b7f4f6e6c79204f776e657220697320616c6c6f7765640000000000000000000000600082015250565b6000615465601583614185565b91506154708261542f565b602082019050919050565b6000602082019050818103600083015261549481615458565b9050919050565b7f43616e277420646f206f7065726174696f6e206f6e2043616e63656c6564207360008201527f616c650000000000000000000000000000000000000000000000000000000000602082015250565b60006154f7602383614185565b91506155028261549b565b604082019050919050565b60006020820190508181036000830152615526816154ea565b9050919050565b7f43616e277420646f206f7065726174696f6e206f6e20436c6f7365642053616c60008201527f6500000000000000000000000000000000000000000000000000000000000000602082015250565b6000615589602183614185565b91506155948261552d565b604082019050919050565b600060208201905081810360008301526155b88161557c565b9050919050565b7f4275796572206973206e6f742052657175657374656420746f2070757263686160008201527f7365000000000000000000000000000000000000000000000000000000000000602082015250565b600061561b602283614185565b9150615626826155bf565b604082019050919050565b6000602082019050818103600083015261564a8161560e565b9050919050565b7f4e6f7420417574686f72697a656420746f2043616e63656c204163636570746160008201527f6e63652052657175657374206f66204275796572000000000000000000000000602082015250565b60006156ad603483614185565b91506156b882615651565b604082019050919050565b600060208201905081810360008301526156dc816156a0565b905091905056fea2646970667358221220fad61d0debb20ee5df9fbb29803fb688176738e208e8591a20bec50f0afeb86764736f6c63430008120033",
  "immutableReferences": {},
  "source": "// SPDX-License-Identifier: MIT\r\npragma solidity >=0.4.22 <0.9.0;\r\n\r\n\r\nimport \"./Properties.sol\";\r\nimport \"./LandRegistry.sol\";\r\n\r\ncontract TransferOwnerShip{\r\n\r\n    // ######################################################################\r\n    //              TRANSFER OWNERSHIP OF PROPERTY\r\n    // ######################################################################\r\n    \r\n\r\n\r\n    Property private propertiesContract;\r\n    LandRegistry private LandRegistryContract;\r\n\r\n\r\n\r\n    constructor(address _landRegistryContractAddress){\r\n        // Creating Land Registry Object\r\n        LandRegistryContract = LandRegistry(_landRegistryContractAddress);\r\n        \r\n        address propertiesContractAddress = LandRegistryContract.getPropertiesContract();  \r\n        propertiesContract = Property(propertiesContractAddress);\r\n\r\n        LandRegistryContract.setTransferOwnershipContractAddress(address(this));\r\n    }\r\n   \r\n\r\n    \r\n    \r\n    // ******** Enumerators ************\r\n    \r\n    // Active :\r\n    //   on creation of sale by owner\r\n    \r\n    // AcceptedToABuyer :\r\n    //   on accepting a buyer request\r\n    \r\n    // CancelSaleBySeller   : \r\n    //   on canceling of sale by owner\r\n    \r\n    // DeadlineOverForPayment : \r\n    //   if payment deadline is over by buyer\r\n    \r\n    // Success :\r\n    //   on successful payment and ownership transfer \r\n    \r\n    // CancelAcceptanceRequestGivenBySeller : \r\n    //   seller has accepted purchase request of a buyer and later,seller again rejected it\r\n    \r\n    // RejectedAcceptanceRequestByBuyer : \r\n    //    Buyer rejected acceptance request given by seller\r\n\r\n    enum SaleState {\r\n        Active,  \r\n        AcceptedToABuyer,\r\n        CancelSaleBySeller,\r\n        Success,\r\n        DeadlineOverForPayment,\r\n        CancelAcceptanceRequestGivenBySeller,\r\n        RejectedAcceptanceRequestByBuyer\r\n\r\n    }\r\n\r\n    /*\r\n    // states of buyer that requested to purchase a sale\r\n   \r\n    // SentPurchaseRequest : \r\n    //   Buyer has sent purchase request to a seller\r\n    \r\n    // CancelPurchaseRequest :\r\n    //   Buyer wants to cancel purchase request sent. \r\n\r\n    // SellerAcceptedPurchaseRequest :\r\n    //   Seller Accepted Purchase Request of a Buyer\r\n\r\n    // SellerRejectedPurchaseRequest :\r\n    //    Seller Rejected Purchase Request \r\n\r\n    // SellerCanceledAcceptanceRequest :\r\n    //    Seller has canceled acceptance request granted.\r\n    //    Allowed to do before buyer done payment only.\r\n\r\n    // YouRejectedAcceptanceRequest :\r\n    //    Buyer himself/herself wants to rejecte acceptance request\r\n\r\n    // ReRequestedPurchaseRequest :\r\n    //    Buyer Re-requesting for purchase  \r\n    //    on deadlin over or owner may rejected by a reason.\r\n\r\n    */\r\n    enum RequestedUserToASaleState {\r\n        SentPurchaseRequest,\r\n        CancelPurchaseRequest,\r\n\r\n        SellerAcceptedPurchaseRequest,\r\n        SellerRejectedPurchaseRequest,\r\n\r\n        SellerCanceledAcceptanceRequest,\r\n        YouRejectedAcceptanceRequest,\r\n\r\n        ReRequestedPurchaseRequest,\r\n\r\n        SuccessfullyTransfered\r\n    }\r\n\r\n\r\n\r\n    // ****************** Structures ********************\r\n\r\n    struct RequestedUser {\r\n            address user;\r\n            uint256 priceOffered;\r\n            RequestedUserToASaleState state;\r\n    }\r\n\r\n\r\n    struct Sales {\r\n        uint256 saleId;\r\n        address owner;\r\n        uint256 price;\r\n        uint256 propertyId;\r\n        address acceptedFor;\r\n        uint256 acceptedPrice;\r\n        uint256 acceptedTime;\r\n        uint256 deadlineForPayment;\r\n        bool paymentDone;\r\n        SaleState state;\r\n    }\r\n\r\n\r\n    // *******  Public variables *********\r\n    Sales[] private sales;\r\n\r\n\r\n    // *********** MAPPINGS  *************\r\n    \r\n    // mapping of address and their properties which are on sale to sell.\r\n    mapping(address => uint256[]) private salesOfOwner;\r\n\r\n    // mapping of address and their requested properties to purchase\r\n    mapping(address => uint256[]) public requestedSales;\r\n\r\n    // mapping of sale id to requested user details\r\n    mapping(uint256 => RequestedUser[]) requestedUsers;\r\n        \r\n    // mapping of location to the sale id available to purchase\r\n    mapping(uint256 => uint256[]) private propertiesOnSaleByLocation;\r\n\r\n\r\n\r\n    // ********** EVENTS     *************\r\n    event PropertyOnSale(address indexed owner, uint256 indexed propertyId, uint256 saleId);\r\n\r\n    event PurchaseRequestSent(uint256 saleId, address requestedUser, uint256 priceOffered);\r\n\r\n    event SaleAccepted(uint256 saleId, address buyer, uint256 price, uint256 deadline);\r\n\r\n\r\n    // ************ FUNCTIONS ************\r\n\r\n    // Conversion function from Ether to Wei\r\n    function convertToWei(uint256 etherValue) public pure returns (uint256) {\r\n        return etherValue * 1 ether;\r\n    }\r\n\r\n\r\n    // add Property on Sale\r\n    function addPropertyOnSale(\r\n        uint256 _propertyId,\r\n        uint256 _price\r\n        ) public {\r\n        \r\n        require(msg.sender == propertiesContract.getLandDetailsAsStruct(_propertyId).owner, \"Only the owner can put the property on sale.\");\r\n\r\n        // add property id to list of properties that are available to sold on a loaction\r\n        uint256[] storage propertiesOnSale = propertiesOnSaleByLocation[propertiesContract.getLandDetailsAsStruct(_propertyId).locationId];\r\n        \r\n        propertiesOnSale.push(sales.length);\r\n\r\n        // Price is already in Wei from JavaScript conversion\r\n        // _price = convertToWei(_price);  // REMOVED: JavaScript sends Wei directly\r\n\r\n        Sales memory newSale = Sales({\r\n            saleId: sales.length,\r\n            owner: msg.sender,\r\n            price: _price,\r\n            propertyId: _propertyId,\r\n            acceptedFor: address(0),\r\n            acceptedPrice: 0,\r\n            acceptedTime: 0,\r\n            deadlineForPayment: 0,\r\n            paymentDone : false,\r\n            state : SaleState.Active\r\n\r\n        });\r\n\r\n        sales.push(newSale);\r\n\r\n\r\n        // //Create a new storage array of the same length\r\n        // requestedUsers[newSale.saleId].push(\r\n        //     RequestedUser({\r\n        //         user : address(0),\r\n        //         priceOffered :0\r\n        //     })\r\n        // );\r\n\r\n\r\n        // add sale to the owner's sales array\r\n        salesOfOwner[msg.sender].push(newSale.saleId);\r\n\r\n        propertiesContract.changeStateToOnSale(_propertyId, msg.sender);\r\n\r\n        emit PropertyOnSale(msg.sender, _propertyId, newSale.saleId);\r\n    }\r\n\r\n\r\n    // function for getting all properties which are on sale of a owner\r\n    function getMySales(\r\n        address _owner\r\n        ) public view returns (Sales[] memory) {\r\n\r\n        uint256[] memory saleIds = salesOfOwner[_owner];\r\n        Sales[] memory ownerSales = new Sales[](saleIds.length);\r\n\r\n        for (uint256 i = 0; i < saleIds.length; i++) {\r\n            ownerSales[i] = sales[saleIds[i]];\r\n        }\r\n\r\n        return ownerSales;\r\n    }\r\n\r\n\r\n    // Function to get all requested user details\r\n    function getRequestedUsers(\r\n        uint256 saleId\r\n        ) public view returns (RequestedUser[] memory) {\r\n        return requestedUsers[saleId];\r\n    }\r\n\r\n\r\n    // function to get all my requested sales to purchase of a buyer\r\n    function getRequestedSales(\r\n        address _owner\r\n        ) public view returns (Sales[] memory) {\r\n\r\n        uint256[] memory saleIds = requestedSales[_owner];\r\n        Sales[] memory myRequestedSales = new Sales[](saleIds.length);\r\n\r\n        for (uint256 i = 0; i < saleIds.length; i++) {\r\n            myRequestedSales[i] = sales[saleIds[i]];\r\n        }\r\n\r\n        return myRequestedSales;\r\n    }\r\n\r\n\r\n    // function to return status of buyer reuest to purchase\r\n    // It returns partiuclar buyer details \r\n    // from requestedUser[saleid].\r\n    function getStatusOfPurchaseRequest(\r\n        uint256 _saleId\r\n        ) public view returns (RequestedUser memory) {\r\n\r\n        // Gettin index value of buyer in \r\n        // requestedUsers of a sale to purchase.\r\n        bool buyerFound = false;\r\n        uint i = 0;\r\n        for (i = 0; i < requestedUsers[_saleId].length; i++) \r\n        {\r\n            if (requestedUsers[_saleId][i].user == msg.sender) {\r\n                buyerFound = true;\r\n                break;\r\n            }\r\n        }\r\n\r\n\r\n        if(buyerFound == true){\r\n            return (RequestedUser({\r\n                user:requestedUsers[_saleId][i].user,\r\n                priceOffered:requestedUsers[_saleId][i].priceOffered, \r\n                state:requestedUsers[_saleId][i].state\r\n            }));\r\n        }\r\n        else\r\n        {\r\n            return (RequestedUser({\r\n                user:address(0),\r\n                priceOffered:0, \r\n                state:RequestedUserToASaleState.SentPurchaseRequest\r\n            }));\r\n        }\r\n        \r\n\r\n    }\r\n\r\n    // return all sales in that location\r\n    function getSalesByLocation(\r\n        uint256 locationId\r\n        ) public view returns (Sales[] memory) {\r\n        \r\n            uint256[] memory saleIds = propertiesOnSaleByLocation[locationId];\r\n            \r\n            Sales[] memory salesGoingOnThisLocation = new Sales[](saleIds.length);\r\n\r\n            for (uint256 i = 0; i < saleIds.length; i++) {\r\n                salesGoingOnThisLocation[i] = sales[saleIds[i]];\r\n            }\r\n            return salesGoingOnThisLocation;\r\n    }\r\n\r\n\r\n\r\n    // send purchase request to seller  to buy a land from buyer\r\n    function sendPurchaseRequest(\r\n        uint256 _saleId, \r\n        uint256 _priceOffered\r\n        ) public {\r\n    \r\n            // Get the sales details\r\n            Sales storage sale = sales[_saleId];\r\n            \r\n            // Make sure the sale exists\r\n            require(sale.propertyId != 0, \"Sale does not exist\");\r\n            \r\n            // Make Sure that Sale is not accepted \r\n            require(sale.state == SaleState.Active,\"Property Not in Active State to Purchase\");\r\n\r\n            // Add the request to the requested users array of sale\r\n            requestedUsers[sale.saleId].push(\r\n                RequestedUser({\r\n                user: msg.sender,\r\n                priceOffered: _priceOffered,  // Already in Wei from JavaScript\r\n                state: RequestedUserToASaleState.SentPurchaseRequest\r\n            }));\r\n            \r\n            // add sale id to myrequested sales\r\n            requestedSales[msg.sender].push(sale.saleId);\r\n\r\n            // Emit an event\r\n            emit PurchaseRequestSent(_saleId, msg.sender, _priceOffered);\r\n    }\r\n\r\n\r\n\r\n    // function to accept buyer request \r\n    function acceptBuyerRequest(\r\n        uint256 _saleId,\r\n        address _buyer,\r\n        uint256 _price\r\n        ) public {\r\n\r\n            // Price is already in Wei from JavaScript conversion\r\n            // _price = convertToWei(_price);  // REMOVED: JavaScript sends Wei directly\r\n\r\n            // Find the sale object by its ID\r\n            Sales storage sale = sales[_saleId];\r\n\r\n            // Make sure the sale exists\r\n            require(sale.propertyId != 0, \"Sale does not exist\");\r\n\r\n            // Make sure the sale exists\r\n            require(sale.state == SaleState.Active, \"Sale is Not Active\");\r\n\r\n\r\n            // Only owner of property can be allowed\r\n            require(msg.sender == propertiesContract.getLandDetailsAsStruct(sale.propertyId).owner, \"Only the owner can accept the purchase request.\");\r\n\r\n\r\n            // Make sure the buyer has made a request and the price is greater than or equal to the owner's set price\r\n            require(requestedUsers[sale.saleId].length > 0, \"No buyer requests found\");\r\n\r\n            // checking buyer has sent request or not\r\n            bool buyerFound = false;\r\n            uint i = 0;\r\n            for (i = 0; i < requestedUsers[sale.saleId].length; i++) {\r\n                if (requestedUsers[sale.saleId][i].user == _buyer) {\r\n                    buyerFound = true;\r\n                    break;\r\n                }\r\n            }\r\n            require(buyerFound, \"Buyer not found in requested user array\");\r\n\r\n            require(_price == requestedUsers[sale.saleId][i].priceOffered, \"Price sent by seller not equal to price offered by buyer\");\r\n\r\n\r\n\r\n            // Update the sale object with buyer information\r\n            sale.acceptedFor = _buyer;\r\n            sale.acceptedPrice = _price;\r\n            sale.acceptedTime = block.timestamp;\r\n            sale.deadlineForPayment = block.timestamp + 5 minutes;\r\n            \r\n            sale.state = SaleState.AcceptedToABuyer;\r\n\r\n\r\n            // Update the state of requested buyer\r\n            requestedUsers[sale.saleId][i].state = RequestedUserToASaleState.SellerAcceptedPurchaseRequest;\r\n\r\n\r\n            // // Remove the buyer request from the sale's requested users array\r\n            // for (uint i = 0; i < sale.requestedUsers.length; i++) {\r\n            //     if (sale.requestedUsers[i].requestedUser == _buyer) {\r\n            //         delete sale.requestedUsers[i];\r\n            //         sale.requestedUsers[i] = sale.requestedUsers[sale.requestedUsers.length - 1];\r\n            //         sale.requestedUsers.pop();\r\n            //         break;\r\n            //     }\r\n            // }\r\n\r\n            emit SaleAccepted(_saleId, _buyer, _price, sale.deadlineForPayment);\r\n    }\r\n\r\n\r\n    // function to canel sale created by seller\r\n    function cancelSaleBySeller(uint256 _saleId) public returns (bool){\r\n\r\n        Sales storage sale = sales[_saleId];\r\n        \r\n        require(sale.owner == msg.sender, \"Only property owner can cancel sale\");\r\n        require(!sale.paymentDone, \"Payment has already been made\");\r\n        require(sale.state != SaleState.Success, \"Successed Sale Can't be Canceled.\");\r\n        require(sale.state != SaleState.CancelSaleBySeller, \"Sale is Already Cancelled\");\r\n        require(sale.state != SaleState.AcceptedToABuyer, \"Accepted To Buyer,Can't Cancel Sale.Please Cancel Acceptanc First\");\r\n\r\n        sale.state = SaleState.CancelSaleBySeller;\r\n        sale.acceptedFor = address(0);\r\n        sale.acceptedPrice = 0;\r\n        sale.acceptedTime = 0;\r\n        sale.deadlineForPayment = 0;\r\n        sale.paymentDone = false;\r\n\r\n        // change state of property again back to verified\r\n        propertiesContract.changeStateBackToVerificed(sale.propertyId, msg.sender);\r\n\r\n        return true;\r\n    }\r\n\r\n\r\n    // Reactive sale when deadline is over\r\n    function reactivateSale(uint256 _saleId) public {\r\n\r\n        Sales storage sale = sales[_saleId];\r\n\r\n        require(sale.owner == msg.sender, \"Only property owner can Re-activate\");\r\n        require(sale.state != SaleState.Active , \"Sale is Already in Active State\");\r\n        require(sale.state != SaleState.CancelSaleBySeller, \"Closed Sale can't be reactivated.Please Create New Sale\");\r\n        require(sale.state != SaleState.AcceptedToABuyer, \"Closed Sale can't be reactivated.Please Create New Sale\");\r\n        require(sale.state != SaleState.Success, \"Successed Sale can't be reactivated.\");\r\n        \r\n        sale.state = SaleState.Active;\r\n        sale.acceptedFor =  address(0);\r\n        sale.acceptedPrice =  0;\r\n        sale.acceptedTime =  0;\r\n        sale.deadlineForPayment =  0;\r\n        sale.paymentDone  =  false;\r\n    }\r\n\r\n\r\n    // Buyer can rejects acceptance request for payment \r\n    function rejectingAcceptanceRequestByBuyer(uint256 _saleId) public {\r\n        Sales storage sale = sales[_saleId];\r\n\r\n        // Check that the sale state is either \"accepted\" or \"deadlineOver\"\r\n        require(sale.state == SaleState.AcceptedToABuyer || sale.state == SaleState.DeadlineOverForPayment, \"Sale state does not allow cancellation\");\r\n\r\n        // Check that the sale was accepted by the caller\r\n        require(sale.acceptedFor == msg.sender, \"Not Authorized to Reject Acceptance Request of Seller\");\r\n\r\n\r\n        // Reset the sale state to \"RejectedAcceptanceRequestByBuyer\"\r\n        sale.state = SaleState.RejectedAcceptanceRequestByBuyer;\r\n\r\n\r\n        // Gettin index value of buyer in \r\n        // requestedUsers of a sale to purchase.\r\n        bool buyerFound = false;\r\n        uint i = 0;\r\n        for (i = 0; i < requestedUsers[sale.saleId].length; i++) {\r\n            if (requestedUsers[sale.saleId][i].user == msg.sender) {\r\n                buyerFound = true;\r\n                break;\r\n            }\r\n        }\r\n\r\n        // Change State of Buyer in RequesteUsers of a Sale.\r\n        requestedUsers[sale.saleId][i].state = RequestedUserToASaleState.YouRejectedAcceptanceRequest;\r\n\r\n        // Emit event\r\n        // emit SaleCanceled(_saleId);\r\n    }\r\n\r\n\r\n    // function to cancel acceptance request by seller \r\n    // allowed only before payment\r\n    function rejectingAcceptanceRequestBySeller(uint256 _saleId) public{\r\n        Sales storage sale = sales[_saleId];\r\n\r\n        // Check that the sale state is either \"accepted\" or \"deadlineOver\"\r\n        require(sale.state == SaleState.AcceptedToABuyer || sale.state == SaleState.DeadlineOverForPayment, \"Sale state does not allow cancellation\");\r\n\r\n        // Check that the sale was accepted by the caller\r\n        require(sale.owner == msg.sender, \"Not Authorized to Cancel Acceptance Request of Buyer\");\r\n\r\n\r\n        address acceptedBuyer = sale.acceptedFor;\r\n\r\n        // Reset the sale state to \"CancelAcceptanceRequestGivenBySeller\"\r\n        sale.state = SaleState.CancelAcceptanceRequestGivenBySeller;\r\n        sale.acceptedFor = address(0);\r\n        sale.acceptedPrice = 0;\r\n        sale.acceptedTime = 0;\r\n        sale.deadlineForPayment = 0;\r\n        sale.paymentDone = false;\r\n\r\n\r\n        // Gettin index value of buyer in \r\n        // requestedUsers of a sale to purchase.\r\n        bool buyerFound = false;\r\n        uint i = 0;\r\n        for (i = 0; i < requestedUsers[sale.saleId].length; i++) {\r\n            if (requestedUsers[sale.saleId][i].user == acceptedBuyer) {\r\n                buyerFound = true;\r\n                break;\r\n            }\r\n        }\r\n\r\n        // Change State of Buyer in RequesteUsers of a Sale.\r\n        requestedUsers[sale.saleId][i].state = RequestedUserToASaleState.SellerCanceledAcceptanceRequest;\r\n\r\n    }\r\n\r\n\r\n\r\n    // function to cancel purchase request sent to seller from buyer\r\n    function cancelPurchaseRequestSentToSeller(uint256 _saleId) public {\r\n        \r\n        Sales storage sale = sales[_saleId];\r\n\r\n        // Check that the sale state is active\r\n        require(sale.state == SaleState.Active, \"Sale state does not allow cancellation\");\r\n\r\n        // Gettin index value of buyer in \r\n        // requestedUsers of a sale to purchase.\r\n        bool buyerFound = false;\r\n        uint i = 0;\r\n        for (i = 0; i < requestedUsers[sale.saleId].length; i++) {\r\n            if (requestedUsers[sale.saleId][i].user == msg.sender) {\r\n                buyerFound = true;\r\n                break;\r\n            }\r\n        }\r\n\r\n        require(buyerFound,\"Only Requested Buyers can cancel\");\r\n\r\n        // Change State of Buyer in RequesteUsers of a Sale.\r\n        requestedUsers[sale.saleId][i].state = RequestedUserToASaleState.CancelPurchaseRequest;\r\n\r\n\r\n    }\r\n\r\n\r\n\r\n     // function to reject purchase request sent by buyer from seller\r\n    function rejectPurchaseRequestOfBuyer(\r\n        uint256 _saleId,\r\n        address _buyer\r\n        ) public {\r\n        \r\n        Sales storage sale = sales[_saleId];\r\n\r\n        // only owner of sale can reject purchase request of buyer\r\n        require(sale.owner == msg.sender,\"Only Owner is allowed\");\r\n        // Check allowed states\r\n        require(sale.state != SaleState.CancelSaleBySeller,\"Can't do operation on Canceled sale\");\r\n        require(sale.state != SaleState.Success,\"Can't do operation on Closed Sale\");\r\n       \r\n\r\n        // Gettin index value of buyer in \r\n        // requestedUsers of a sale to purchase.\r\n        bool buyerFound = false;\r\n        uint i = 0;\r\n        for (i = 0; i < requestedUsers[sale.saleId].length; i++) {\r\n            if (requestedUsers[sale.saleId][i].user == _buyer) {\r\n                buyerFound = true;\r\n                break;\r\n            }\r\n        }\r\n\r\n        require(buyerFound,\"Buyer is not Requested to purchase\");\r\n\r\n        // Change State of Buyer in RequesteUsers of a Sale.\r\n        requestedUsers[sale.saleId][i].state = RequestedUserToASaleState.SellerRejectedPurchaseRequest;\r\n\r\n\r\n    }\r\n\r\n\r\n\r\n    // function to re-request purchase request\r\n    function rerequestPurchaseRequest(\r\n        uint256 _saleId, \r\n        uint256 _priceOffered\r\n        ) public {\r\n    \r\n            // Get the sales details\r\n            Sales storage sale = sales[_saleId];\r\n            \r\n            // Make sure the sale exists\r\n            require(sale.propertyId != 0, \"Sale does not exist\");\r\n            \r\n            // Make sure that sale is active state\r\n            require(sale.state == SaleState.Active, \"Sale is Not Active\");\r\n\r\n             // Gettin index value of buyer in \r\n            // requestedUsers of a sale to purchase.\r\n            bool buyerFound = false;\r\n            uint i = 0;\r\n            for (i = 0; i < requestedUsers[sale.saleId].length; i++) {\r\n                if (requestedUsers[sale.saleId][i].user == msg.sender) {\r\n                    buyerFound = true;\r\n                    break;\r\n                }\r\n            }\r\n\r\n            // checking existed buyer or not\r\n            require(buyerFound,\"Buyer Not found in Requested List\");\r\n\r\n            // allowed states\r\n            require(requestedUsers[sale.saleId][i].state != RequestedUserToASaleState.SentPurchaseRequest,\"State Not Allowed to Re-sent Purchase Request\");\r\n            require(requestedUsers[sale.saleId][i].state != RequestedUserToASaleState.SellerAcceptedPurchaseRequest,\"State Not Allowed to Re-sent Purchase Request\");\r\n            require(requestedUsers[sale.saleId][i].state != RequestedUserToASaleState.ReRequestedPurchaseRequest,\"State Not Allowed to Re-sent Purchase Request\");\r\n    \r\n\r\n            // Reset Buyer in RequesteUsers of a Sale.\r\n            requestedUsers[sale.saleId][i].state = RequestedUserToASaleState.ReRequestedPurchaseRequest;\r\n            requestedUsers[sale.saleId][i].priceOffered = _priceOffered;  // Already in Wei from JavaScript\r\n                        \r\n            // Emit an event\r\n            emit PurchaseRequestSent(_saleId, msg.sender, _priceOffered);\r\n    }\r\n\r\n   \r\n    // function to transfer owner ship \r\n    function transferOwnerShip(\r\n        uint256 saleId\r\n        ) public payable {\r\n\r\n            Sales storage sale = sales[saleId];\r\n            \r\n            require(msg.sender == sale.acceptedFor, \"Only accepted buyer can complete the sale\");\r\n\r\n            require(msg.value == sale.acceptedPrice, \"Payment amount must be equal to accepted price\");\r\n\r\n            require(block.timestamp <= sale.deadlineForPayment, \"Payment deadline has passed\");\r\n            \r\n\r\n            // Gettin index value of buyer in \r\n            // requestedUsers of a sale to purchase.\r\n            bool buyerFound = false;\r\n            uint i = 0;\r\n            for (i = 0; i < requestedUsers[sale.saleId].length; i++) {\r\n                if (requestedUsers[sale.saleId][i].user == msg.sender) {\r\n                    buyerFound = true;\r\n                    break;\r\n                }\r\n            }\r\n\r\n            // checking existed buyer or not\r\n            require(buyerFound,\"Buyer Not found in Requested List\");\r\n            \r\n\r\n            // transfer payment to property owner\r\n            payable(sale.owner).transfer(msg.value);\r\n\r\n            // transfer ownership of property to buyer\r\n            LandRegistryContract.transferOwnership(sale.propertyId, msg.sender);\r\n            \r\n           // chaging state of Requested user to successfully transformed\r\n           requestedUsers[sale.saleId][i].state = RequestedUserToASaleState.SuccessfullyTransfered;\r\n\r\n            // Remove sale from availabel sales by location\r\n\r\n            uint256 _location = propertiesContract.getLandDetailsAsStruct(sale.propertyId).locationId;\r\n\r\n            uint256[] storage propertiesOnSale = propertiesOnSaleByLocation[_location];\r\n\r\n            for (i = 0; i < propertiesOnSale.length; i++) {\r\n                if (propertiesOnSale[i] == sale.saleId) {\r\n                    propertiesOnSale[i] = propertiesOnSale[propertiesOnSale.length - 1];\r\n                    propertiesOnSale.pop();\r\n                    break;\r\n                }\r\n            }\r\n            \r\n\r\n            sale.state = SaleState.Success;\r\n\r\n            // // remove sale from buyer's requested sales\r\n            // delete requestedSales[msg.sender][saleId];\r\n            \r\n            // // emit event\r\n            // emit SaleCompleted(saleId, msg.sender, sale.acceptedPrice);\r\n    }\r\n\r\n}",
  "sourcePath": "c:\\Users\\Natykufsky\\Desktop\\Apps\\python\\Blockchain-Powered-Land-Registration-System\\Smart_contracts\\contracts\\TransferOfOwnership.sol",
  "compiler": {
    "name": "solc",
    "version": "0.8.18+commit.87f61d96.Emscripten.clang"
  },
  "schemaVersion": "3.4.16",
  "updatedAt": "2026-02-10T15:51:49.093Z",
  "networkType": "ethereum",
  "devdoc": {
    "kind": "dev",
    "methods": {},
    "version": 1
  },
  "userdoc": {
    "kind": "user",
    "methods": {},
    "version": 1
  }
}